{
  "_format": "hh-sol-artifact-1",
  "contractName": "JRC1Bonus",
  "sourceName": "contracts/program/JRC1Bonus.sol",
  "abi": [
    {
      "anonymous": false,
      "inputs": [
        {
          "indexed": false,
          "internalType": "uint256",
          "name": "purchaseId",
          "type": "uint256"
        },
        {
          "indexed": false,
          "internalType": "uint256",
          "name": "timestamp",
          "type": "uint256"
        }
      ],
      "name": "CancelPurchase",
      "type": "event"
    },
    {
      "anonymous": false,
      "inputs": [
        {
          "indexed": true,
          "internalType": "address",
          "name": "cashbox",
          "type": "address"
        },
        {
          "indexed": true,
          "internalType": "address",
          "name": "userAddress",
          "type": "address"
        },
        {
          "indexed": false,
          "internalType": "bytes",
          "name": "user_abi_in",
          "type": "bytes"
        },
        {
          "indexed": false,
          "internalType": "bytes",
          "name": "user_abi_out",
          "type": "bytes"
        },
        {
          "indexed": false,
          "internalType": "uint256",
          "name": "timestamp",
          "type": "uint256"
        }
      ],
      "name": "CreateUser",
      "type": "event"
    },
    {
      "anonymous": false,
      "inputs": [
        {
          "indexed": true,
          "internalType": "address",
          "name": "editor",
          "type": "address"
        },
        {
          "indexed": false,
          "internalType": "bytes",
          "name": "settings_abi",
          "type": "bytes"
        },
        {
          "indexed": false,
          "internalType": "uint256",
          "name": "timestamp",
          "type": "uint256"
        }
      ],
      "name": "EditSettings",
      "type": "event"
    },
    {
      "anonymous": false,
      "inputs": [
        {
          "indexed": true,
          "internalType": "address",
          "name": "oldOwner",
          "type": "address"
        },
        {
          "indexed": true,
          "internalType": "address",
          "name": "newOwner",
          "type": "address"
        },
        {
          "indexed": false,
          "internalType": "bytes",
          "name": "settings_abi",
          "type": "bytes"
        },
        {
          "indexed": false,
          "internalType": "bytes",
          "name": "properties_abi",
          "type": "bytes"
        },
        {
          "indexed": false,
          "internalType": "string",
          "name": "metadataURI",
          "type": "string"
        },
        {
          "indexed": false,
          "internalType": "uint256",
          "name": "timestamp",
          "type": "uint256"
        }
      ],
      "name": "Initialize",
      "type": "event"
    },
    {
      "anonymous": false,
      "inputs": [
        {
          "indexed": true,
          "internalType": "address",
          "name": "cashbox",
          "type": "address"
        },
        {
          "indexed": false,
          "internalType": "bytes",
          "name": "purchase_abi_in",
          "type": "bytes"
        },
        {
          "indexed": false,
          "internalType": "bytes",
          "name": "purchase_abi_out",
          "type": "bytes"
        },
        {
          "indexed": false,
          "internalType": "uint256",
          "name": "timestamp",
          "type": "uint256"
        }
      ],
      "name": "MakePurchase",
      "type": "event"
    },
    {
      "anonymous": false,
      "inputs": [
        {
          "indexed": true,
          "internalType": "address",
          "name": "previousOwner",
          "type": "address"
        },
        {
          "indexed": true,
          "internalType": "address",
          "name": "newOwner",
          "type": "address"
        }
      ],
      "name": "OwnershipTransferred",
      "type": "event"
    },
    {
      "inputs": [],
      "name": "PROPERTIES_ABI",
      "outputs": [
        {
          "internalType": "string",
          "name": "",
          "type": "string"
        }
      ],
      "stateMutability": "view",
      "type": "function"
    },
    {
      "inputs": [],
      "name": "PURCHASE_ABI_IN",
      "outputs": [
        {
          "internalType": "string",
          "name": "",
          "type": "string"
        }
      ],
      "stateMutability": "view",
      "type": "function"
    },
    {
      "inputs": [],
      "name": "PURCHASE_ABI_OUT",
      "outputs": [
        {
          "internalType": "string",
          "name": "",
          "type": "string"
        }
      ],
      "stateMutability": "view",
      "type": "function"
    },
    {
      "inputs": [],
      "name": "SETTINGS_ABI",
      "outputs": [
        {
          "internalType": "string",
          "name": "",
          "type": "string"
        }
      ],
      "stateMutability": "view",
      "type": "function"
    },
    {
      "inputs": [],
      "name": "USER_ABI_IN",
      "outputs": [
        {
          "internalType": "string",
          "name": "",
          "type": "string"
        }
      ],
      "stateMutability": "view",
      "type": "function"
    },
    {
      "inputs": [],
      "name": "USER_ABI_OUT",
      "outputs": [
        {
          "internalType": "string",
          "name": "",
          "type": "string"
        }
      ],
      "stateMutability": "view",
      "type": "function"
    },
    {
      "inputs": [
        {
          "internalType": "uint256",
          "name": "purchaseId",
          "type": "uint256"
        }
      ],
      "name": "cancelPurchase",
      "outputs": [
        {
          "internalType": "bool",
          "name": "success",
          "type": "bool"
        }
      ],
      "stateMutability": "nonpayable",
      "type": "function"
    },
    {
      "inputs": [
        {
          "internalType": "address",
          "name": "userAddress",
          "type": "address"
        },
        {
          "internalType": "bytes",
          "name": "user_abi_in",
          "type": "bytes"
        }
      ],
      "name": "createUser",
      "outputs": [
        {
          "internalType": "bytes",
          "name": "user_abi_out",
          "type": "bytes"
        }
      ],
      "stateMutability": "nonpayable",
      "type": "function"
    },
    {
      "inputs": [],
      "name": "currencyCode",
      "outputs": [
        {
          "internalType": "string",
          "name": "",
          "type": "string"
        }
      ],
      "stateMutability": "view",
      "type": "function"
    },
    {
      "inputs": [],
      "name": "currencyDecimals",
      "outputs": [
        {
          "internalType": "uint256",
          "name": "",
          "type": "uint256"
        }
      ],
      "stateMutability": "view",
      "type": "function"
    },
    {
      "inputs": [
        {
          "internalType": "bytes",
          "name": "settings_abi",
          "type": "bytes"
        }
      ],
      "name": "editSettings",
      "outputs": [
        {
          "internalType": "bool",
          "name": "success",
          "type": "bool"
        }
      ],
      "stateMutability": "nonpayable",
      "type": "function"
    },
    {
      "inputs": [],
      "name": "erc1155tokens",
      "outputs": [
        {
          "internalType": "address[]",
          "name": "",
          "type": "address[]"
        }
      ],
      "stateMutability": "view",
      "type": "function"
    },
    {
      "inputs": [],
      "name": "erc20tokens",
      "outputs": [
        {
          "internalType": "address[]",
          "name": "",
          "type": "address[]"
        }
      ],
      "stateMutability": "view",
      "type": "function"
    },
    {
      "inputs": [],
      "name": "erc721tokens",
      "outputs": [
        {
          "internalType": "address[]",
          "name": "",
          "type": "address[]"
        }
      ],
      "stateMutability": "view",
      "type": "function"
    },
    {
      "inputs": [],
      "name": "getOwner",
      "outputs": [
        {
          "internalType": "address",
          "name": "",
          "type": "address"
        }
      ],
      "stateMutability": "view",
      "type": "function"
    },
    {
      "inputs": [],
      "name": "implGeneration",
      "outputs": [
        {
          "internalType": "string",
          "name": "",
          "type": "string"
        }
      ],
      "stateMutability": "view",
      "type": "function"
    },
    {
      "inputs": [],
      "name": "implName",
      "outputs": [
        {
          "internalType": "string",
          "name": "",
          "type": "string"
        }
      ],
      "stateMutability": "view",
      "type": "function"
    },
    {
      "inputs": [
        {
          "internalType": "address",
          "name": "newOwner",
          "type": "address"
        },
        {
          "internalType": "bytes",
          "name": "settings_abi",
          "type": "bytes"
        },
        {
          "internalType": "bytes",
          "name": "properties_abi",
          "type": "bytes"
        },
        {
          "internalType": "string",
          "name": "metadataURI",
          "type": "string"
        }
      ],
      "name": "initialize",
      "outputs": [
        {
          "internalType": "bool",
          "name": "success",
          "type": "bool"
        }
      ],
      "stateMutability": "nonpayable",
      "type": "function"
    },
    {
      "inputs": [],
      "name": "isInitialized",
      "outputs": [
        {
          "internalType": "bool",
          "name": "",
          "type": "bool"
        }
      ],
      "stateMutability": "view",
      "type": "function"
    },
    {
      "inputs": [
        {
          "internalType": "address",
          "name": "userAddress",
          "type": "address"
        }
      ],
      "name": "isUserExist",
      "outputs": [
        {
          "internalType": "bool",
          "name": "",
          "type": "bool"
        }
      ],
      "stateMutability": "view",
      "type": "function"
    },
    {
      "inputs": [
        {
          "internalType": "bytes",
          "name": "purchase_abi_in",
          "type": "bytes"
        }
      ],
      "name": "makePurchase",
      "outputs": [
        {
          "internalType": "bytes",
          "name": "purchase_abi_out",
          "type": "bytes"
        }
      ],
      "stateMutability": "nonpayable",
      "type": "function"
    },
    {
      "inputs": [],
      "name": "metadataURI",
      "outputs": [
        {
          "internalType": "string",
          "name": "",
          "type": "string"
        }
      ],
      "stateMutability": "view",
      "type": "function"
    },
    {
      "inputs": [],
      "name": "owner",
      "outputs": [
        {
          "internalType": "address",
          "name": "",
          "type": "address"
        }
      ],
      "stateMutability": "view",
      "type": "function"
    },
    {
      "inputs": [],
      "name": "properties",
      "outputs": [
        {
          "internalType": "bytes",
          "name": "properties_abi",
          "type": "bytes"
        }
      ],
      "stateMutability": "view",
      "type": "function"
    },
    {
      "inputs": [],
      "name": "protoVersion",
      "outputs": [
        {
          "internalType": "string",
          "name": "",
          "type": "string"
        }
      ],
      "stateMutability": "view",
      "type": "function"
    },
    {
      "inputs": [
        {
          "internalType": "uint256",
          "name": "purchaseId",
          "type": "uint256"
        }
      ],
      "name": "purchase",
      "outputs": [
        {
          "components": [
            {
              "internalType": "uint256",
              "name": "status",
              "type": "uint256"
            },
            {
              "internalType": "address",
              "name": "target",
              "type": "address"
            },
            {
              "internalType": "bytes",
              "name": "purchase_abi_in",
              "type": "bytes"
            },
            {
              "internalType": "bytes",
              "name": "purchase_abi_out",
              "type": "bytes"
            }
          ],
          "internalType": "struct JRC1Bonus.Purchase",
          "name": "",
          "type": "tuple"
        }
      ],
      "stateMutability": "view",
      "type": "function"
    },
    {
      "inputs": [],
      "name": "settings",
      "outputs": [
        {
          "internalType": "bytes",
          "name": "settings_abi",
          "type": "bytes"
        }
      ],
      "stateMutability": "view",
      "type": "function"
    },
    {
      "inputs": [],
      "name": "totalUsers",
      "outputs": [
        {
          "internalType": "uint256",
          "name": "",
          "type": "uint256"
        }
      ],
      "stateMutability": "view",
      "type": "function"
    },
    {
      "inputs": [
        {
          "internalType": "address",
          "name": "newOwner",
          "type": "address"
        }
      ],
      "name": "transferOwnership",
      "outputs": [],
      "stateMutability": "nonpayable",
      "type": "function"
    },
    {
      "inputs": [
        {
          "internalType": "string",
          "name": "foreignCard",
          "type": "string"
        }
      ],
      "name": "userByForeignCard",
      "outputs": [
        {
          "internalType": "address",
          "name": "",
          "type": "address"
        }
      ],
      "stateMutability": "view",
      "type": "function"
    },
    {
      "inputs": [
        {
          "internalType": "address",
          "name": "target",
          "type": "address"
        }
      ],
      "name": "userDetails",
      "outputs": [
        {
          "internalType": "bytes",
          "name": "user_abi_out",
          "type": "bytes"
        }
      ],
      "stateMutability": "view",
      "type": "function"
    }
  ],
  "bytecode": "0x60806040526000805460ff60a01b1916815560085534801561002057600080fd5b50600080546001600160a01b031916339081178255604051909182917f8be0079c531659141344cd1fd0a4f28419497f9722a3daafe3b4186f6b6457e0908290a350614310806100716000396000f3fe60806040523480156200001157600080fd5b5060043610620002145760003560e01c80639b4fd4251162000129578063e102e5e311620000b1578063f2fde38b116200007b578063f2fde38b14620003e8578063f41903f81462000401578063fa4ae3b41462000418578063fcd802b114620004225762000214565b8063e102e5e314620003ae578063e63b726114620003b8578063efef39a114620003c2578063f050902214620002c65762000214565b8063c86a006f11620000f3578063c86a006f1462000379578063d35191791462000383578063d9bd2604146200039a578063e06174e414620003a45762000214565b80639b4fd4251462000344578063a8326977146200034e578063bff1f9e11462000358578063c3634ddc14620003625762000214565b8063392e53cd11620001ad5780637624388e11620001775780637624388e14620002f15780637e03b686146200030a578063893d20e814620003215780638da5cb5b146200033a5762000214565b8063392e53cd14620002bc5780633b87234414620002c657806348dec2a714620002d05780636129256914620002e75762000214565b8063102193b611620001ef578063102193b6146200027a5780631f8ceb70146200029157806321be8960146200029b5780633520ed0914620002a55762000214565b80630255fa1e146200021957806303ee438c14620002485780630f4ec95e1462000261575b600080fd5b620002306200022a36600462001f3d565b6200042c565b6040516200023f91906200231b565b60405180910390f35b620002526200044a565b6040516200023f919062002343565b6200026b620004e4565b6040516200023f9190620022cc565b620002526200028b36600462002094565b62000541565b6200025262000ab8565b6200025262000ad9565b62000230620002b636600462001ff1565b62000b00565b6200023062000cfa565b6200026b62000d0a565b62000252620002e136600462001f3d565b62000d1c565b6200025262000df8565b620002fb62000e18565b6040516200023f9190620027ff565b620002526200031b36600462001f9d565b62000e1d565b6200032b62001155565b6040516200023f91906200229f565b6200032b62001166565b6200025262001175565b6200025262001194565b620002fb620011b3565b620002306200037336600462002168565b620011b9565b62000252620015fd565b6200032b6200039436600462002094565b62001634565b6200025262001668565b620002526200169f565b62000252620016e4565b6200025262001701565b620003d9620003d336600462002168565b62001738565b6040516200023f9190620027a6565b620003ff620003f936600462001f3d565b620018ab565b005b620002306200041236600462002094565b62001963565b6200025262001a66565b6200025262001a85565b6001600160a01b031660009081526009602052604090205460ff1690565b60068054604080516020601f6002600019610100600188161502019095169490940493840181900481028201810190925282815260609390929091830182828015620004da5780601f10620004ae57610100808354040283529160200191620004da565b820191906000526020600020905b815481529060010190602001808311620004bc57829003601f168201915b5050505050905090565b60408051600180825281830190925260609182919060208083019080368337505060075482519293506001600160a01b0316918391506000906200052457fe5b6001600160a01b0390921660209283029190910190910152905090565b6060336200054e62001166565b6001600160a01b031614620005805760405162461bcd60e51b81526004016200057790620024d8565b60405180910390fd5b600080600080858060200190518101906200059c919062001f5c565b929650909450925090506001600160a01b038416620005cf5760405162461bcd60e51b81526004016200057790620025a3565b6007546001600160a01b031681620005fb5760405162461bcd60e51b81526004016200057790620024a9565b6040516370a0823160e01b815283906001600160a01b038316906370a08231906200062b9089906004016200229f565b60206040518083038186803b1580156200064457600080fd5b505afa15801562000659573d6000803e3d6000fd5b505050506040513d601f19601f820116820180604052508101906200067f919062002181565b1015620006a05760405162461bcd60e51b81526004016200057790620025e4565b6000848152600b602052604090205415620006cf5760405162461bcd60e51b8152600401620005779062002757565b6001600160a01b0385166000908152600960205260409020600190810154620006f89162001c05565b6001600160a01b038616600090815260096020526040902060018101919091556002015462000728908362001c05565b6001600160a01b03861660009081526009602052604081206002019190915580838515620008fe57600062000780670de0b6b3a7640000620007796001600201548a62001c3490919063ffffffff16565b9062001c74565b90506000620007a46064620007796001600301548a62001c3490919063ffffffff16565b905080821015620007c657620007bb878362001cb8565b9250879350620007f4565b620007d2878262001cb8565b600354909350620007f1906200077983670de0b6b3a764000062001c34565b93505b604051632770a7eb60e21b81526001600160a01b03871690639dc29fac9062000824908d908890600401620022b3565b600060405180830381600087803b1580156200083f57600080fd5b505af115801562000854573d6000803e3d6000fd5b505060055460ff161515600114159150620008f6905057600254831115620008f6576001546200088e906064906200077990869062001c34565b6040516340c10f1960e01b81529095506001600160a01b038716906340c10f1990620008c1908d908990600401620022b3565b600060405180830381600087803b158015620008dc57600080fd5b505af1158015620008f1573d6000803e3d6000fd5b505050505b50506200098f565b5050600254600090849081106200098f5760015462000927906064906200077990849062001c34565b6040516340c10f1960e01b81529093506001600160a01b038516906340c10f19906200095a908b908790600401620022b3565b600060405180830381600087803b1580156200097557600080fd5b505af11580156200098a573d6000803e3d6000fd5b505050505b808383604051602001620009a69392919062002816565b6040516020818303038152906040529850604051806080016040528060018152602001896001600160a01b031681526020018b81526020018a815250600b60008981526020019081526020016000206000820151816000015560208201518160010160006101000a8154816001600160a01b0302191690836001600160a01b03160217905550604082015181600201908051906020019062000a4a92919062001db5565b506060820151805162000a6891600384019160209091019062001db5565b50506040513391507f4b8d5b3f3f881c291cfcc39842c06418b57530b4e84d5c8d99996c03f96759839062000aa3908d908d904290620023a9565b60405180910390a25050505050505050919050565b6060604051806060016040528060248152602001620042b760249139905090565b60408051808201909152600d81526c737472696e672c737472696e6760981b602082015290565b60003362000b0d62001166565b6001600160a01b03161462000b365760405162461bcd60e51b81526004016200057790620024d8565b600054600160a01b900460ff161562000b635760405162461bcd60e51b815260040162000577906200265c565b62000b6e85620018ab565b60008060008060008880602001905181019062000b8c9190620021fe565b945094509450945094506060808980602001905181019062000baf91906200210a565b9150915062000bc2878787878762001cfc565b6000805460ff60a01b1916600160a01b1781556040805160a0810182528981526020810189905280820188905260608101879052851515608090910181905260018a90556002899055600388905560048790556005805460ff191690911790555181908490849062000c349062001e3a565b62000c429392919062002407565b604051809103906000f08015801562000c5f573d6000803e3d6000fd5b50600780546001600160a01b0319166001600160a01b0383161790558a5190915062000c939060069060208d019062001db5565b508c6001600160a01b0316336001600160a01b03167fb8a311dbaff13498ceaf8a50384a4f8db0537c2026a024df25fb8d0d357eaefb8e8e8e4260405162000cdf949392919062002358565b60405180910390a35060019c9b505050505050505050505050565b600054600160a01b900460ff1690565b60408051600081526020810190915290565b6001600160a01b03808216600090815260096020526040908190208054600182015460029092015460075493516370a0823160e01b815260609560ff90931694919291909116906370a082319062000d799088906004016200229f565b60206040518083038186803b15801562000d9257600080fd5b505afa15801562000da7573d6000803e3d6000fd5b505050506040513d601f19601f8201168201806040525081019062000dcd919062002181565b60405160200162000de2949392919062002326565b6040516020818303038152906040529050919050565b604080518082019091526006815265737472696e6760d01b602082015290565b601290565b60603362000e2a62001166565b6001600160a01b03161462000e535760405162461bcd60e51b81526004016200057790620024d8565b60608280602001905181019062000e6b9190620020d3565b90506001600160a01b03841662000e965760405162461bcd60e51b81526004016200057790620025a3565b6001600160a01b03841660009081526009602052604090205460ff161562000ed25760405162461bcd60e51b8152600401620005779062002720565b60006001600160a01b0316600a8260405162000eef91906200227e565b908152604051908190036020019020546001600160a01b03161462000f285760405162461bcd60e51b8152600401620005779062002472565b60085462000f3890600162001c05565b600855604080516060810182526001808252600060208084018281528486018381526001600160a01b038b16845260098352928690209451855460ff1916901515178555519284019290925551600290920191909155905162000f9c91016200229c565b604051602081830303815290604052805190602001208160405160200162000fc591906200227e565b6040516020818303038152906040528051906020012014620010245783600a8260405162000ff491906200227e565b90815260405190819003602001902080546001600160a01b03929092166001600160a01b03199092169190911790555b6001600160a01b03808516600090815260096020526040908190208054600182015460029092015460075493516370a0823160e01b815260609560ff90931694919291909116906370a082319062001081908b906004016200229f565b60206040518083038186803b1580156200109a57600080fd5b505afa158015620010af573d6000803e3d6000fd5b505050506040513d601f19601f82011682018060405250810190620010d5919062002181565b604051602001620010ea949392919062002326565b6040516020818303038152906040529050846001600160a01b0316336001600160a01b03167f66096d42ad43c09194bfe3fa67794a2426071bbf4f762de32ea396373742e5808684426040516200114493929190620023a9565b60405180910390a350505b92915050565b60006200116162001166565b905090565b6000546001600160a01b031690565b604080518082019091526005815264426f6e757360d81b602082015290565b604080518082019091526005815264302e392e3160d81b602082015290565b60085490565b600033620011c662001166565b6001600160a01b031614620011ef5760405162461bcd60e51b81526004016200057790620024d8565b6000828152600b602052604090208054600114620012215760405162461bcd60e51b8152600401620005779062002693565b6002808255600382018054604080516020601f60001961010060018716150201909416959095049283018590048502810185019091528181526000938493919290830182828015620012b75780601f106200128b57610100808354040283529160200191620012b7565b820191906000526020600020905b8154815290600101906020018083116200129957829003601f168201915b5050505050806020019051810190620012d191906200219a565b60028087018054604080516020601f6000196101006001871615020190941695909504928301859004850281018501909152818152949750929550600094509190830182828015620013675780601f106200133b5761010080835404028352916020019162001367565b820191906000526020600020905b8154815290600101906020018083116200134957829003601f168201915b5050505050806020019051810190620013819190620021c8565b6001808901546001600160a01b031660008181526009602052604090208201549296509450620013b5935090915062001cb8565b6001600160a01b0382166000908152600960205260409020600181019190915560020154620013e5908362001cb8565b6001600160a01b0380831660009081526009602052604090206002019190915560075416841562001548576007546040516060916001600160a01b031690620014339085906024016200229f565b60408051601f198184030181529181526020820180516001600160e01b03166370a0823160e01b179052516200146a91906200227e565b600060405180830381855afa9150503d8060008114620014a7576040519150601f19603f3d011682016040523d82523d6000602084013e620014ac565b606091505b50915050600081806020019051810190620014c8919062002181565b90506000818811620014db5787620014dd565b815b604051632770a7eb60e21b81529091506001600160a01b03851690639dc29fac90620015109088908590600401620022b3565b600060405180830381600087803b1580156200152b57600080fd5b505af115801562001540573d6000803e3d6000fd5b505050505050505b8315620015b4576040516340c10f1960e01b81526001600160a01b038216906340c10f19906200157f9085908890600401620022b3565b600060405180830381600087803b1580156200159a57600080fd5b505af1158015620015af573d6000803e3d6000fd5b505050505b7f265c2848e67269ce83e6e51b70334c0c06a06a1d071b5be134c59f425a1e51fc8842604051620015e792919062002808565b60405180910390a1506001979650505050505050565b60408051808201909152601781527f75696e743235362c75696e743235362c75696e74323536000000000000000000602082015290565b6000600a826040516200164891906200227e565b908152604051908190036020019020546001600160a01b03169050919050565b60408051808201909152601f81527f616464726573732c75696e743235362c75696e743235362c75696e7432353600602082015290565b600154600254600354600454600554604051606095620016d095909490939092909160ff909116906020016200282c565b604051602081830303815290604052905090565b604080518082019091526003815262292aa160e91b602082015290565b60408051808201909152601c81527f626f6f6c2c75696e743235362c75696e743235362c75696e7432353600000000602082015290565b6200174262001e48565b6000828152600b60209081526040918290208251608081018452815481526001808301546001600160a01b0316828501526002808401805487516101009482161594909402600019011691909104601f81018690048602830186018752808352929593949386019391929091830182828015620018035780601f10620017d75761010080835404028352916020019162001803565b820191906000526020600020905b815481529060010190602001808311620017e557829003601f168201915b505050918352505060038201805460408051602060026001851615610100026000190190941693909304601f81018490048402820184019092528181529382019392918301828280156200189b5780601f106200186f576101008083540402835291602001916200189b565b820191906000526020600020905b8154815290600101906020018083116200187d57829003601f168201915b5050505050815250509050919050565b33620018b662001166565b6001600160a01b031614620018df5760405162461bcd60e51b81526004016200057790620024d8565b6001600160a01b038116620019085760405162461bcd60e51b815260040162000577906200251f565b600080546040516001600160a01b03808516939216917f8be0079c531659141344cd1fd0a4f28419497f9722a3daafe3b4186f6b6457e091a3600080546001600160a01b0319166001600160a01b0392909216919091179055565b6000336200197062001166565b6001600160a01b031614620019995760405162461bcd60e51b81526004016200057790620024d8565b600080600080600086806020019051810190620019b79190620021fe565b94509450945094509450620019d0858585858562001cfc565b6040805160a0810182528681526020810186905280820185905260608101849052821515608090910181905260018790556002869055600385905560048490556005805460ff191690911790555133907fe01e4b436cf6bbba052bbafe2298a61238ce1343f2205a4078274f81795dbad69062001a51908a904290620023e3565b60405180910390a25060019695505050505050565b6040805180820190915260058152640332e302e360dc1b602082015290565b60075460408051600481526024810182526020810180516001600160e01b03166306fdde0360e01b179052905160609283926001600160a01b039091169162001acf91906200227e565b600060405180830381855afa9150503d806000811462001b0c576040519150601f19603f3d011682016040523d82523d6000602084013e62001b11565b606091505b5060075460408051600481526024810182526020810180516001600160e01b03166395d89b4160e01b1790529051929450606093506001600160a01b039091169162001b5e91906200227e565b600060405180830381855afa9150503d806000811462001b9b576040519150601f19603f3d011682016040523d82523d6000602084013e62001ba0565b606091505b5091505060608280602001905181019062001bbc9190620020d3565b905060608280602001905181019062001bd69190620020d3565b9050818160405160200162001bed92919062002440565b60405160208183030381529060405294505050505090565b60008282018381101562001c2d5760405162461bcd60e51b815260040162000577906200256c565b9392505050565b60008262001c45575060006200114f565b8282028284828162001c5357fe5b041462001c2d5760405162461bcd60e51b815260040162000577906200261b565b600062001c2d83836040518060400160405280601a81526020017f536166654d6174683a206469766973696f6e206279207a65726f00000000000081525062001d4b565b600062001c2d83836040518060400160405280601e81526020017f536166654d6174683a207375627472616374696f6e206f766572666c6f77000081525062001d86565b606485111562001d205760405162461bcd60e51b81526004016200057790620026e9565b606482111562001d445760405162461bcd60e51b81526004016200057790620026e9565b5050505050565b6000818362001d6f5760405162461bcd60e51b815260040162000577919062002343565b50600083858162001d7c57fe5b0495945050505050565b6000818484111562001dad5760405162461bcd60e51b815260040162000577919062002343565b505050900390565b828054600181600116156101000203166002900490600052602060002090601f016020900481019282601f1062001df857805160ff191683800117855562001e28565b8280016001018555821562001e28579182015b8281111562001e2857825182559160200191906001019062001e0b565b5062001e3692915062001e79565b5090565b6119cc80620028eb83390190565b60405180608001604052806000815260200160006001600160a01b0316815260200160608152602001606081525090565b5b8082111562001e36576000815560010162001e7a565b600082601f83011262001ea1578081fd5b813562001eb862001eb28262002879565b62002851565b915080825283602082850101111562001ed057600080fd5b8060208401602084013760009082016020015292915050565b600082601f83011262001efa578081fd5b815162001f0b62001eb28262002879565b915080825283602082850101111562001f2357600080fd5b62001f368160208401602086016200289e565b5092915050565b60006020828403121562001f4f578081fd5b813562001c2d81620028d1565b6000806000806080858703121562001f72578283fd5b845162001f7f81620028d1565b60208601516040870151606090970151919890975090945092505050565b6000806040838503121562001fb0578182fd5b823562001fbd81620028d1565b9150602083013567ffffffffffffffff81111562001fd9578182fd5b62001fe78582860162001e90565b9150509250929050565b6000806000806080858703121562002007578384fd5b84356200201481620028d1565b9350602085013567ffffffffffffffff8082111562002031578485fd5b6200203f8883890162001e90565b9450604087013591508082111562002055578384fd5b620020638883890162001e90565b9350606087013591508082111562002079578283fd5b50620020888782880162001e90565b91505092959194509250565b600060208284031215620020a6578081fd5b813567ffffffffffffffff811115620020bd578182fd5b620020cb8482850162001e90565b949350505050565b600060208284031215620020e5578081fd5b815167ffffffffffffffff811115620020fc578182fd5b620020cb8482850162001ee9565b600080604083850312156200211d578182fd5b825167ffffffffffffffff8082111562002135578384fd5b620021438683870162001ee9565b9350602085015191508082111562002159578283fd5b5062001fe78582860162001ee9565b6000602082840312156200217a578081fd5b5035919050565b60006020828403121562002193578081fd5b5051919050565b600080600060608486031215620021af578283fd5b8351925060208401519150604084015190509250925092565b60008060008060808587031215620021de578384fd5b505082516020840151604085015160609095015191969095509092509050565b600080600080600060a0868803121562002216578081fd5b855194506020860151935060408601519250606086015191506080860151801515811462002242578182fd5b809150509295509295909350565b600081518084526200226a8160208601602086016200289e565b601f01601f19169290920160200192915050565b60008251620022928184602087016200289e565b9190910192915050565b90565b6001600160a01b0391909116815260200190565b6001600160a01b03929092168252602082015260400190565b6020808252825182820181905260009190848201906040850190845b818110156200230f5783516001600160a01b031683529284019291840191600101620022e8565b50909695505050505050565b901515815260200190565b931515845260208401929092526040830152606082015260800190565b60006020825262001c2d602083018462002250565b6000608082526200236d608083018762002250565b828103602084015262002381818762002250565b9050828103604084015262002397818662002250565b91505082606083015295945050505050565b600060608252620023be606083018662002250565b8281036020840152620023d2818662002250565b915050826040830152949350505050565b600060408252620023f8604083018562002250565b90508260208301529392505050565b60008482526060602083015262002422606083018562002250565b828103604084015262002436818562002250565b9695505050505050565b60006040825262002455604083018562002250565b828103602084015262002469818562002250565b95945050505050565b6020808252601c908201527f4a524331426f6e75733a20666f726569676e206475626c696361746500000000604082015260600190565b60208082526015908201527404a524331426f6e75733a2073756d546f74616c3d3605c1b604082015260600190565b60208082526027908201527f4c6f79616c74794f776e61626c653a2063616c6c6572206973206e6f74207468604082015266329037bbb732b960c91b606082015260800190565b6020808252602d908201527f4c6f79616c74794f776e61626c653a206e6577206f776e65722069732074686560408201526c207a65726f206164647265737360981b606082015260800190565b6020808252601b908201527f536166654d6174683a206164646974696f6e206f766572666c6f770000000000604082015260600190565b60208082526021908201527f4a524331426f6e75733a20616464726573732063616e6e6f74206265206e756c6040820152601b60fa1b606082015260800190565b6020808252601e908201527f4a524331426f6e75733a206e6f7420656e6f756768742062616c616e63650000604082015260600190565b60208082526021908201527f536166654d6174683a206d756c7469706c69636174696f6e206f766572666c6f6040820152607760f81b606082015260800190565b60208082526019908201527f4a524331426f6e75733a20616c726561647920696e6974656400000000000000604082015260600190565b60208082526036908201527f4a524331426f6e75733a207075726368617365206d75737420626520636f6d706040820152751b195d195908185b99081b9bdd0818d85b98d95b195960521b606082015260800190565b60208082526019908201527f4a524331426f6e75733a2077726f6e672073657474696e677300000000000000604082015260600190565b6020808252601f908201527f4a524331426f6e75733a207573657220616c7265616479206372656174656400604082015260600190565b6020808252602f908201527f4a524331426f6e75733a2070757263686173652077697468207468697320494460408201526e20616c72656164792065786973747360881b606082015260800190565b6000602082528251602083015260018060a01b036020840151166040830152604083015160806060840152620027e060a084018262002250565b90506060840151601f1984830301608085015262002469828262002250565b90815260200190565b918252602082015260400190565b9283526020830191909152604082015260600190565b9485526020850193909352604084019190915260608301521515608082015260a00190565b60405181810167ffffffffffffffff811182821017156200287157600080fd5b604052919050565b600067ffffffffffffffff82111562002890578081fd5b50601f01601f191660200190565b60005b83811015620028bb578181015183820152602001620028a1565b83811115620028cb576000848401525b50505050565b6001600160a01b0381168114620028e757600080fd5b5056fe60806040523480156200001157600080fd5b50604051620019cc380380620019cc833981810160405260608110156200003757600080fd5b8151602083018051604051929492938301929190846401000000008211156200005f57600080fd5b9083019060208201858111156200007557600080fd5b82516401000000008111828201881017156200009057600080fd5b82525081516020918201929091019080838360005b83811015620000bf578181015183820152602001620000a5565b50505050905090810190601f168015620000ed5780820380516001836020036101000a031916815260200191505b50604052602001805160405193929190846401000000008211156200011157600080fd5b9083019060208201858111156200012757600080fd5b82516401000000008111828201881017156200014257600080fd5b82525081516020918201929091019080838360005b838110156200017157818101518382015260200162000157565b50505050905090810190601f1680156200019f5780820380516001836020036101000a031916815260200191505b50604052505082518391508290620001bf90600390602085019062000503565b508051620001d590600490602084019062000503565b505060058054601260ff1990911617610100600160a81b031916610100339081029190911790915560405190915081906000907f8be0079c531659141344cd1fd0a4f28419497f9722a3daafe3b4186f6b6457e0908290a3506005805460ff60a81b1916905562000247338462000250565b5050506200059f565b6001600160a01b038216620002ac576040805162461bcd60e51b815260206004820152601f60248201527f45524332303a206d696e7420746f20746865207a65726f206164647265737300604482015290519081900360640190fd5b620002ba600083836200035f565b620002d6816002546200045f60201b620009fe1790919060201c565b6002556001600160a01b0382166000908152602081815260409091205462000309918390620009fe6200045f821b17901c565b6001600160a01b0383166000818152602081815260408083209490945583518581529351929391927fddf252ad1be2c89b69c2b068fc378daa952ba7f163c4a11628f55a4df523b3ef9281900390910190a35050565b336200036a620004c1565b6001600160a01b031614620003b15760405162461bcd60e51b8152600401808060200182810382526027815260200180620019576027913960400191505060405180910390fd5b620003c98383836200045a60201b62000a5f1760201c565b620003d3620004d5565b15620004115760405162461bcd60e51b81526004018080602001828103825260298152602001806200197e6029913960400191505060405180910390fd5b6200041c33620004e5565b156200045a5760405162461bcd60e51b8152600401808060200182810382526025815260200180620019a76025913960400191505060405180910390fd5b505050565b600082820183811015620004ba576040805162461bcd60e51b815260206004820152601b60248201527f536166654d6174683a206164646974696f6e206f766572666c6f770000000000604482015290519081900360640190fd5b9392505050565b60055461010090046001600160a01b031690565b600554600160a81b900460ff1690565b6001600160a01b031660009081526006602052604090205460ff1690565b828054600181600116156101000203166002900490600052602060002090601f016020900481019282601f106200054657805160ff191683800117855562000576565b8280016001018555821562000576579182015b828111156200057657825182559160200191906001019062000559565b506200058492915062000588565b5090565b5b8082111562000584576000815560010162000589565b6113a880620005af6000396000f3fe608060405234801561001057600080fd5b506004361061012c5760003560e01c80638456cb59116100ad578063a9059cbb11610071578063a9059cbb14610378578063b351dfe8146103a4578063dd62ed3e146103d2578063e47d606014610400578063f2fde38b146104265761012c565b80638456cb59146102ec5780638da5cb5b146102f457806395d89b41146103185780639dc29fac14610320578063a457c2d71461034c5761012c565b806339509351116100f4578063395093511461025c5780633f4ba83a1461028857806340c10f19146102925780635c975abb146102be57806370a08231146102c65761012c565b806306fdde0314610131578063095ea7b3146101ae57806318160ddd146101ee57806323b872dd14610208578063313ce5671461023e575b600080fd5b61013961044c565b6040805160208082528351818301528351919283929083019185019080838360005b8381101561017357818101518382015260200161015b565b50505050905090810190601f1680156101a05780820380516001836020036101000a031916815260200191505b509250505060405180910390f35b6101da600480360360408110156101c457600080fd5b506001600160a01b0381351690602001356104e2565b604080519115158252519081900360200190f35b6101f66104f8565b60408051918252519081900360200190f35b6101da6004803603606081101561021e57600080fd5b506001600160a01b038135811691602081013590911690604001356104fe565b610246610567565b6040805160ff9092168252519081900360200190f35b6101da6004803603604081101561027257600080fd5b506001600160a01b038135169060200135610570565b6102906105a6565b005b610290600480360360408110156102a857600080fd5b506001600160a01b0381351690602001356105fe565b6101da61065a565b6101f6600480360360208110156102dc57600080fd5b50356001600160a01b031661066a565b610290610685565b6102fc6106db565b604080516001600160a01b039092168252519081900360200190f35b6101396106ef565b6102906004803603604081101561033657600080fd5b506001600160a01b038135169060200135610750565b6101da6004803603604081101561036257600080fd5b506001600160a01b0381351690602001356107a8565b6101da6004803603604081101561038e57600080fd5b506001600160a01b0381351690602001356107f7565b610290600480360360408110156103ba57600080fd5b506001600160a01b0381351690602001351515610804565b6101f6600480360360408110156103e857600080fd5b506001600160a01b03813581169160200135166108bb565b6101da6004803603602081101561041657600080fd5b50356001600160a01b03166108e6565b6102906004803603602081101561043c57600080fd5b50356001600160a01b0316610904565b60038054604080516020601f60026000196101006001881615020190951694909404938401819004810282018101909252828152606093909290918301828280156104d85780601f106104ad576101008083540402835291602001916104d8565b820191906000526020600020905b8154815290600101906020018083116104bb57829003601f168201915b5050505050905090565b60006104ef338484610a64565b50600192915050565b60025490565b600061050b848484610b50565b61055d8433610558856040518060600160405280602881526020016112bc602891396001600160a01b038a1660009081526001602090815260408083203384529091529020549190610cab565b610a64565b5060019392505050565b60055460ff1690565b3360008181526001602090815260408083206001600160a01b038716845290915281205490916104ef91859061055890866109fe565b336105af6106db565b6001600160a01b0316146105f45760405162461bcd60e51b81526004018080602001828103825260278152602001806111d26027913960400191505060405180910390fd5b6105fc610d42565b565b336106076106db565b6001600160a01b03161461064c5760405162461bcd60e51b81526004018080602001828103825260278152602001806111d26027913960400191505060405180910390fd5b6106568282610dea565b5050565b600554600160a81b900460ff1690565b6001600160a01b031660009081526020819052604090205490565b3361068e6106db565b6001600160a01b0316146106d35760405162461bcd60e51b81526004018080602001828103825260278152602001806111d26027913960400191505060405180910390fd5b6105fc610eda565b60055461010090046001600160a01b031690565b60048054604080516020601f60026000196101006001881615020190951694909404938401819004810282018101909252828152606093909290918301828280156104d85780601f106104ad576101008083540402835291602001916104d8565b336107596106db565b6001600160a01b03161461079e5760405162461bcd60e51b81526004018080602001828103825260278152602001806111d26027913960400191505060405180910390fd5b6106568282610f68565b60006104ef33846105588560405180606001604052806025815260200161134e602591393360009081526001602090815260408083206001600160a01b038d1684529091529020549190610cab565b60006104ef338484610b50565b3361080d6106db565b6001600160a01b0316146108525760405162461bcd60e51b81526004018080602001828103825260278152602001806111d26027913960400191505060405180910390fd5b6001600160a01b038216600081815260066020908152604091829020805460ff19168515159081179091558251908152429181019190915281517fdb76f617e04ebf72dc17dbe8376979b98408ad67557ef09c5272f7156d8123e8929181900390910190a25050565b6001600160a01b03918216600090815260016020908152604080832093909416825291909152205490565b6001600160a01b031660009081526006602052604090205460ff1690565b3361090d6106db565b6001600160a01b0316146109525760405162461bcd60e51b81526004018080602001828103825260278152602001806111d26027913960400191505060405180910390fd5b6001600160a01b0381166109975760405162461bcd60e51b815260040180806020018281038252602d8152602001806111f9602d913960400191505060405180910390fd5b6005546040516001600160a01b0380841692610100900416907f8be0079c531659141344cd1fd0a4f28419497f9722a3daafe3b4186f6b6457e090600090a3600580546001600160a01b0390921661010002610100600160a81b0319909216919091179055565b600082820183811015610a58576040805162461bcd60e51b815260206004820152601b60248201527f536166654d6174683a206164646974696f6e206f766572666c6f770000000000604482015290519081900360640190fd5b9392505050565b505050565b6001600160a01b038316610aa95760405162461bcd60e51b815260040180806020018281038252602481526020018061132a6024913960400191505060405180910390fd5b6001600160a01b038216610aee5760405162461bcd60e51b81526004018080602001828103825260228152602001806112266022913960400191505060405180910390fd5b6001600160a01b03808416600081815260016020908152604080832094871680845294825291829020859055815185815291517f8c5be1e5ebec7d5bd14f71427d1e84f3dd0314c0f7b2291e5b200ac8c7c3b9259281900390910190a3505050565b6001600160a01b038316610b955760405162461bcd60e51b81526004018080602001828103825260258152602001806113056025913960400191505060405180910390fd5b6001600160a01b038216610bda5760405162461bcd60e51b815260040180806020018281038252602381526020018061118d6023913960400191505060405180910390fd5b610be5838383611064565b610c2281604051806060016040528060268152602001611271602691396001600160a01b0386166000908152602081905260409020549190610cab565b6001600160a01b038085166000908152602081905260408082209390935590841681522054610c5190826109fe565b6001600160a01b038084166000818152602081815260409182902094909455805185815290519193928716927fddf252ad1be2c89b69c2b068fc378daa952ba7f163c4a11628f55a4df523b3ef92918290030190a3505050565b60008184841115610d3a5760405162461bcd60e51b81526004018080602001828103825283818151815260200191508051906020019080838360005b83811015610cff578181015183820152602001610ce7565b50505050905090810190601f168015610d2c5780820380516001836020036101000a031916815260200191505b509250505060405180910390fd5b505050900390565b600554600160a81b900460ff16610d97576040805162461bcd60e51b815260206004820152601460248201527314185d5cd8589b194e881b9bdd081c185d5cd95960621b604482015290519081900360640190fd5b6005805460ff60a81b191690557f5db9ee0a495bf2e6ff9c91a7834c1ba4fdd244a5e8aa4e537bd38aeae4b073aa610dcd611146565b604080516001600160a01b039092168252519081900360200190a1565b6001600160a01b038216610e45576040805162461bcd60e51b815260206004820152601f60248201527f45524332303a206d696e7420746f20746865207a65726f206164647265737300604482015290519081900360640190fd5b610e5160008383611064565b600254610e5e90826109fe565b6002556001600160a01b038216600090815260208190526040902054610e8490826109fe565b6001600160a01b0383166000818152602081815260408083209490945583518581529351929391927fddf252ad1be2c89b69c2b068fc378daa952ba7f163c4a11628f55a4df523b3ef9281900390910190a35050565b600554600160a81b900460ff1615610f2c576040805162461bcd60e51b815260206004820152601060248201526f14185d5cd8589b194e881c185d5cd95960821b604482015290519081900360640190fd5b6005805460ff60a81b1916600160a81b1790557f62e78cea01bee320cd4e420270b5ea74000d11b0c9f74754ebdbfc544b05a258610dcd611146565b6001600160a01b038216610fad5760405162461bcd60e51b81526004018080602001828103825260218152602001806112e46021913960400191505060405180910390fd5b610fb982600083611064565b610ff6816040518060600160405280602281526020016111b0602291396001600160a01b0385166000908152602081905260409020549190610cab565b6001600160a01b03831660009081526020819052604090205560025461101c908261114a565b6002556040805182815290516000916001600160a01b038516917fddf252ad1be2c89b69c2b068fc378daa952ba7f163c4a11628f55a4df523b3ef9181900360200190a35050565b3361106d6106db565b6001600160a01b0316146110b25760405162461bcd60e51b81526004018080602001828103825260278152602001806111d26027913960400191505060405180910390fd5b6110bd838383610a5f565b6110c561065a565b156111015760405162461bcd60e51b81526004018080602001828103825260298152602001806112486029913960400191505060405180910390fd5b61110a336108e6565b15610a5f5760405162461bcd60e51b81526004018080602001828103825260258152602001806112976025913960400191505060405180910390fd5b3390565b6000610a5883836040518060400160405280601e81526020017f536166654d6174683a207375627472616374696f6e206f766572666c6f770000815250610cab56fe45524332303a207472616e7366657220746f20746865207a65726f206164647265737345524332303a206275726e20616d6f756e7420657863656564732062616c616e63654c6f79616c74794f776e61626c653a2063616c6c6572206973206e6f7420746865206f776e65724c6f79616c74794f776e61626c653a206e6577206f776e657220697320746865207a65726f206164647265737345524332303a20617070726f766520746f20746865207a65726f20616464726573734c6f79616c747945524332303a20746f6b656e207472616e73666572207768696c652070617573656445524332303a207472616e7366657220616d6f756e7420657863656564732062616c616e63654c6f79616c747945524332303a2073656e64657220696e2074686520626c61636b6c69737445524332303a207472616e7366657220616d6f756e74206578636565647320616c6c6f77616e636545524332303a206275726e2066726f6d20746865207a65726f206164647265737345524332303a207472616e736665722066726f6d20746865207a65726f206164647265737345524332303a20617070726f76652066726f6d20746865207a65726f206164647265737345524332303a2064656372656173656420616c6c6f77616e63652062656c6f77207a65726fa2646970667358221220883cb565417ecfbdd1ea538999895a42f0e4aa5f65f7872f1be7f2cb92b397b764736f6c634300060c00334c6f79616c74794f776e61626c653a2063616c6c6572206973206e6f7420746865206f776e65724c6f79616c747945524332303a20746f6b656e207472616e73666572207768696c65207061757365644c6f79616c747945524332303a2073656e64657220696e2074686520626c61636b6c69737475696e743235362c75696e743235362c75696e743235362c75696e743235362c626f6f6ca26469706673582212202d292d9b1ce79a27285969547a47a82338ab8d38e7bd5ede918a4f4ff6fbe2d764736f6c634300060c0033",
  "linkReferences": {},
  "deployedLinkReferences": {}
}