{
  "contractName": "LoyaltyERC20",
  "abi": [
    {
      "inputs": [
        {
          "internalType": "uint256",
          "name": "initialSupply",
          "type": "uint256"
        },
        {
          "internalType": "string",
          "name": "tokenName",
          "type": "string"
        },
        {
          "internalType": "string",
          "name": "tokenSymbol",
          "type": "string"
        }
      ],
      "stateMutability": "nonpayable",
      "type": "constructor"
    },
    {
      "anonymous": false,
      "inputs": [
        {
          "indexed": true,
          "internalType": "address",
          "name": "owner",
          "type": "address"
        },
        {
          "indexed": true,
          "internalType": "address",
          "name": "spender",
          "type": "address"
        },
        {
          "indexed": false,
          "internalType": "uint256",
          "name": "value",
          "type": "uint256"
        }
      ],
      "name": "Approval",
      "type": "event"
    },
    {
      "anonymous": false,
      "inputs": [
        {
          "indexed": true,
          "internalType": "address",
          "name": "user",
          "type": "address"
        },
        {
          "indexed": false,
          "internalType": "bool",
          "name": "value",
          "type": "bool"
        },
        {
          "indexed": false,
          "internalType": "uint256",
          "name": "timestamp",
          "type": "uint256"
        }
      ],
      "name": "BlacklistUpdated",
      "type": "event"
    },
    {
      "anonymous": false,
      "inputs": [
        {
          "indexed": true,
          "internalType": "address",
          "name": "previousOwner",
          "type": "address"
        },
        {
          "indexed": true,
          "internalType": "address",
          "name": "newOwner",
          "type": "address"
        }
      ],
      "name": "OwnershipTransferred",
      "type": "event"
    },
    {
      "anonymous": false,
      "inputs": [
        {
          "indexed": false,
          "internalType": "address",
          "name": "account",
          "type": "address"
        }
      ],
      "name": "Paused",
      "type": "event"
    },
    {
      "anonymous": false,
      "inputs": [
        {
          "indexed": true,
          "internalType": "address",
          "name": "from",
          "type": "address"
        },
        {
          "indexed": true,
          "internalType": "address",
          "name": "to",
          "type": "address"
        },
        {
          "indexed": false,
          "internalType": "uint256",
          "name": "value",
          "type": "uint256"
        }
      ],
      "name": "Transfer",
      "type": "event"
    },
    {
      "anonymous": false,
      "inputs": [
        {
          "indexed": false,
          "internalType": "address",
          "name": "account",
          "type": "address"
        }
      ],
      "name": "Unpaused",
      "type": "event"
    },
    {
      "inputs": [
        {
          "internalType": "address",
          "name": "owner",
          "type": "address"
        },
        {
          "internalType": "address",
          "name": "spender",
          "type": "address"
        }
      ],
      "name": "allowance",
      "outputs": [
        {
          "internalType": "uint256",
          "name": "",
          "type": "uint256"
        }
      ],
      "stateMutability": "view",
      "type": "function"
    },
    {
      "inputs": [
        {
          "internalType": "address",
          "name": "spender",
          "type": "address"
        },
        {
          "internalType": "uint256",
          "name": "amount",
          "type": "uint256"
        }
      ],
      "name": "approve",
      "outputs": [
        {
          "internalType": "bool",
          "name": "",
          "type": "bool"
        }
      ],
      "stateMutability": "nonpayable",
      "type": "function"
    },
    {
      "inputs": [
        {
          "internalType": "address",
          "name": "account",
          "type": "address"
        }
      ],
      "name": "balanceOf",
      "outputs": [
        {
          "internalType": "uint256",
          "name": "",
          "type": "uint256"
        }
      ],
      "stateMutability": "view",
      "type": "function"
    },
    {
      "inputs": [],
      "name": "decimals",
      "outputs": [
        {
          "internalType": "uint8",
          "name": "",
          "type": "uint8"
        }
      ],
      "stateMutability": "view",
      "type": "function"
    },
    {
      "inputs": [
        {
          "internalType": "address",
          "name": "spender",
          "type": "address"
        },
        {
          "internalType": "uint256",
          "name": "subtractedValue",
          "type": "uint256"
        }
      ],
      "name": "decreaseAllowance",
      "outputs": [
        {
          "internalType": "bool",
          "name": "",
          "type": "bool"
        }
      ],
      "stateMutability": "nonpayable",
      "type": "function"
    },
    {
      "inputs": [
        {
          "internalType": "address",
          "name": "spender",
          "type": "address"
        },
        {
          "internalType": "uint256",
          "name": "addedValue",
          "type": "uint256"
        }
      ],
      "name": "increaseAllowance",
      "outputs": [
        {
          "internalType": "bool",
          "name": "",
          "type": "bool"
        }
      ],
      "stateMutability": "nonpayable",
      "type": "function"
    },
    {
      "inputs": [],
      "name": "name",
      "outputs": [
        {
          "internalType": "string",
          "name": "",
          "type": "string"
        }
      ],
      "stateMutability": "view",
      "type": "function"
    },
    {
      "inputs": [],
      "name": "owner",
      "outputs": [
        {
          "internalType": "address",
          "name": "",
          "type": "address"
        }
      ],
      "stateMutability": "view",
      "type": "function"
    },
    {
      "inputs": [],
      "name": "paused",
      "outputs": [
        {
          "internalType": "bool",
          "name": "",
          "type": "bool"
        }
      ],
      "stateMutability": "view",
      "type": "function"
    },
    {
      "inputs": [],
      "name": "renounceOwnership",
      "outputs": [],
      "stateMutability": "nonpayable",
      "type": "function"
    },
    {
      "inputs": [],
      "name": "symbol",
      "outputs": [
        {
          "internalType": "string",
          "name": "",
          "type": "string"
        }
      ],
      "stateMutability": "view",
      "type": "function"
    },
    {
      "inputs": [],
      "name": "totalSupply",
      "outputs": [
        {
          "internalType": "uint256",
          "name": "",
          "type": "uint256"
        }
      ],
      "stateMutability": "view",
      "type": "function"
    },
    {
      "inputs": [
        {
          "internalType": "address",
          "name": "recipient",
          "type": "address"
        },
        {
          "internalType": "uint256",
          "name": "amount",
          "type": "uint256"
        }
      ],
      "name": "transfer",
      "outputs": [
        {
          "internalType": "bool",
          "name": "",
          "type": "bool"
        }
      ],
      "stateMutability": "nonpayable",
      "type": "function"
    },
    {
      "inputs": [
        {
          "internalType": "address",
          "name": "sender",
          "type": "address"
        },
        {
          "internalType": "address",
          "name": "recipient",
          "type": "address"
        },
        {
          "internalType": "uint256",
          "name": "amount",
          "type": "uint256"
        }
      ],
      "name": "transferFrom",
      "outputs": [
        {
          "internalType": "bool",
          "name": "",
          "type": "bool"
        }
      ],
      "stateMutability": "nonpayable",
      "type": "function"
    },
    {
      "inputs": [
        {
          "internalType": "address",
          "name": "newOwner",
          "type": "address"
        }
      ],
      "name": "transferOwnership",
      "outputs": [],
      "stateMutability": "nonpayable",
      "type": "function"
    },
    {
      "inputs": [
        {
          "internalType": "address",
          "name": "to",
          "type": "address"
        },
        {
          "internalType": "uint256",
          "name": "amount",
          "type": "uint256"
        }
      ],
      "name": "mint",
      "outputs": [],
      "stateMutability": "nonpayable",
      "type": "function"
    },
    {
      "inputs": [
        {
          "internalType": "address",
          "name": "to",
          "type": "address"
        },
        {
          "internalType": "uint256",
          "name": "amount",
          "type": "uint256"
        }
      ],
      "name": "burn",
      "outputs": [],
      "stateMutability": "nonpayable",
      "type": "function"
    },
    {
      "inputs": [],
      "name": "pause",
      "outputs": [],
      "stateMutability": "nonpayable",
      "type": "function"
    },
    {
      "inputs": [],
      "name": "unpause",
      "outputs": [],
      "stateMutability": "nonpayable",
      "type": "function"
    },
    {
      "inputs": [
        {
          "internalType": "address",
          "name": "user",
          "type": "address"
        },
        {
          "internalType": "bool",
          "name": "value",
          "type": "bool"
        }
      ],
      "name": "blacklistUpdate",
      "outputs": [],
      "stateMutability": "nonpayable",
      "type": "function"
    },
    {
      "inputs": [
        {
          "internalType": "address",
          "name": "user",
          "type": "address"
        }
      ],
      "name": "isBlackListed",
      "outputs": [
        {
          "internalType": "bool",
          "name": "",
          "type": "bool"
        }
      ],
      "stateMutability": "view",
      "type": "function"
    }
  ],
  "bytecode": "0x60806040523480156200001157600080fd5b5060405162001b1a38038062001b1a833981810160405260608110156200003757600080fd5b8151602083018051604051929492938301929190846401000000008211156200005f57600080fd5b9083019060208201858111156200007557600080fd5b82516401000000008111828201881017156200009057600080fd5b82525081516020918201929091019080838360005b83811015620000bf578181015183820152602001620000a5565b50505050905090810190601f168015620000ed5780820380516001836020036101000a031916815260200191505b50604052602001805160405193929190846401000000008211156200011157600080fd5b9083019060208201858111156200012757600080fd5b82516401000000008111828201881017156200014257600080fd5b82525081516020918201929091019080838360005b838110156200017157818101518382015260200162000157565b50505050905090810190601f1680156200019f5780820380516001836020036101000a031916815260200191505b50604052505082518391508290620001bf9060039060208501906200055c565b508051620001d59060049060208401906200055c565b50506005805460ff19166012179055506000620001f162000269565b60058054610100600160a81b0319166101006001600160a01b03841690810291909117909155604051919250906000907f8be0079c531659141344cd1fd0a4f28419497f9722a3daafe3b4186f6b6457e0908290a3506005805460ff60a81b191690556200026033846200026d565b505050620005f8565b3390565b6001600160a01b038216620002c9576040805162461bcd60e51b815260206004820152601f60248201527f45524332303a206d696e7420746f20746865207a65726f206164647265737300604482015290519081900360640190fd5b620002d7600083836200037c565b620002f381600254620004b860201b62000b3b1790919060201c565b6002556001600160a01b038216600090815260208181526040909120546200032691839062000b3b620004b8821b17901c565b6001600160a01b0383166000818152602081815260408083209490945583518581529351929391927fddf252ad1be2c89b69c2b068fc378daa952ba7f163c4a11628f55a4df523b3ef9281900390910190a35050565b6200038662000269565b6001600160a01b0316620003996200051a565b6001600160a01b031614620003f5576040805162461bcd60e51b815260206004820181905260248201527f4f776e61626c653a2063616c6c6572206973206e6f7420746865206f776e6572604482015290519081900360640190fd5b6200040d838383620004b360201b62000b9c1760201c565b620004176200052e565b15620004555760405162461bcd60e51b815260040180806020018281038252602781526020018062001af36027913960400191505060405180910390fd5b62000460336200053e565b15620004b3576040805162461bcd60e51b815260206004820152601e60248201527f45524332303a2073656e64657220696e2074686520626c61636b6c6973740000604482015290519081900360640190fd5b505050565b60008282018381101562000513576040805162461bcd60e51b815260206004820152601b60248201527f536166654d6174683a206164646974696f6e206f766572666c6f770000000000604482015290519081900360640190fd5b9392505050565b60055461010090046001600160a01b031690565b600554600160a81b900460ff1690565b6001600160a01b031660009081526006602052604090205460ff1690565b828054600181600116156101000203166002900490600052602060002090601f016020900481019282601f106200059f57805160ff1916838001178555620005cf565b82800160010185558215620005cf579182015b82811115620005cf578251825591602001919060010190620005b2565b50620005dd929150620005e1565b5090565b5b80821115620005dd5760008155600101620005e2565b6114eb80620006086000396000f3fe608060405234801561001057600080fd5b50600436106101375760003560e01c8063715018a6116100b8578063a457c2d71161007c578063a457c2d71461035f578063a9059cbb1461038b578063b351dfe8146103b7578063dd62ed3e146103e5578063e47d606014610413578063f2fde38b1461043957610137565b8063715018a6146102f75780638456cb59146102ff5780638da5cb5b1461030757806395d89b411461032b5780639dc29fac1461033357610137565b806339509351116100ff57806339509351146102675780633f4ba83a1461029357806340c10f191461029d5780635c975abb146102c957806370a08231146102d157610137565b806306fdde031461013c578063095ea7b3146101b957806318160ddd146101f957806323b872dd14610213578063313ce56714610249575b600080fd5b61014461045f565b6040805160208082528351818301528351919283929083019185019080838360005b8381101561017e578181015183820152602001610166565b50505050905090810190601f1680156101ab5780820380516001836020036101000a031916815260200191505b509250505060405180910390f35b6101e5600480360360408110156101cf57600080fd5b506001600160a01b0381351690602001356104f5565b604080519115158252519081900360200190f35b61020161050b565b60408051918252519081900360200190f35b6101e56004803603606081101561022957600080fd5b506001600160a01b03813581169160208101359091169060400135610511565b61025161057a565b6040805160ff9092168252519081900360200190f35b6101e56004803603604081101561027d57600080fd5b506001600160a01b038135169060200135610583565b61029b6105b9565b005b61029b600480360360408110156102b357600080fd5b506001600160a01b038135169060200135610625565b6101e5610695565b610201600480360360208110156102e757600080fd5b50356001600160a01b03166106a5565b61029b6106c0565b61029b610772565b61030f6107dc565b604080516001600160a01b039092168252519081900360200190f35b6101446107f0565b61029b6004803603604081101561034957600080fd5b506001600160a01b038135169060200135610851565b6101e56004803603604081101561037557600080fd5b506001600160a01b0381351690602001356108bd565b6101e5600480360360408110156103a157600080fd5b506001600160a01b03813516906020013561090c565b61029b600480360360408110156103cd57600080fd5b506001600160a01b0381351690602001351515610919565b610201600480360360408110156103fb57600080fd5b506001600160a01b03813581169160200135166109e4565b6101e56004803603602081101561042957600080fd5b50356001600160a01b0316610a0f565b61029b6004803603602081101561044f57600080fd5b50356001600160a01b0316610a2d565b60038054604080516020601f60026000196101006001881615020190951694909404938401819004810282018101909252828152606093909290918301828280156104eb5780601f106104c0576101008083540402835291602001916104eb565b820191906000526020600020905b8154815290600101906020018083116104ce57829003601f168201915b5050505050905090565b6000610502338484610ba1565b50600192915050565b60025490565b600061051e848484610c8d565b610570843361056b856040518060600160405280602881526020016113df602891396001600160a01b038a1660009081526001602090815260408083203384529091529020549190610de8565b610ba1565b5060019392505050565b60055460ff1690565b3360008181526001602090815260408083206001600160a01b0387168452909152812054909161050291859061056b9086610b3b565b6105c1610e7f565b6001600160a01b03166105d26107dc565b6001600160a01b03161461061b576040805162461bcd60e51b81526020600482018190526024820152600080516020611407833981519152604482015290519081900360640190fd5b610623610e83565b565b61062d610e7f565b6001600160a01b031661063e6107dc565b6001600160a01b031614610687576040805162461bcd60e51b81526020600482018190526024820152600080516020611407833981519152604482015290519081900360640190fd5b6106918282610f26565b5050565b600554600160a81b900460ff1690565b6001600160a01b031660009081526020819052604090205490565b6106c8610e7f565b6001600160a01b03166106d96107dc565b6001600160a01b031614610722576040805162461bcd60e51b81526020600482018190526024820152600080516020611407833981519152604482015290519081900360640190fd5b60055460405160009161010090046001600160a01b0316907f8be0079c531659141344cd1fd0a4f28419497f9722a3daafe3b4186f6b6457e0908390a360058054610100600160a81b0319169055565b61077a610e7f565b6001600160a01b031661078b6107dc565b6001600160a01b0316146107d4576040805162461bcd60e51b81526020600482018190526024820152600080516020611407833981519152604482015290519081900360640190fd5b610623611016565b60055461010090046001600160a01b031690565b60048054604080516020601f60026000196101006001881615020190951694909404938401819004810282018101909252828152606093909290918301828280156104eb5780601f106104c0576101008083540402835291602001916104eb565b610859610e7f565b6001600160a01b031661086a6107dc565b6001600160a01b0316146108b3576040805162461bcd60e51b81526020600482018190526024820152600080516020611407833981519152604482015290519081900360640190fd5b610691828261109f565b6000610502338461056b85604051806060016040528060258152602001611491602591393360009081526001602090815260408083206001600160a01b038d1684529091529020549190610de8565b6000610502338484610c8d565b610921610e7f565b6001600160a01b03166109326107dc565b6001600160a01b03161461097b576040805162461bcd60e51b81526020600482018190526024820152600080516020611407833981519152604482015290519081900360640190fd5b6001600160a01b038216600081815260066020908152604091829020805460ff19168515159081179091558251908152429181019190915281517fdb76f617e04ebf72dc17dbe8376979b98408ad67557ef09c5272f7156d8123e8929181900390910190a25050565b6001600160a01b03918216600090815260016020908152604080832093909416825291909152205490565b6001600160a01b031660009081526006602052604090205460ff1690565b610a35610e7f565b6001600160a01b0316610a466107dc565b6001600160a01b031614610a8f576040805162461bcd60e51b81526020600482018190526024820152600080516020611407833981519152604482015290519081900360640190fd5b6001600160a01b038116610ad45760405162461bcd60e51b815260040180806020018281038252602681526020018061134a6026913960400191505060405180910390fd5b6005546040516001600160a01b0380841692610100900416907f8be0079c531659141344cd1fd0a4f28419497f9722a3daafe3b4186f6b6457e090600090a3600580546001600160a01b0390921661010002610100600160a81b0319909216919091179055565b600082820183811015610b95576040805162461bcd60e51b815260206004820152601b60248201527f536166654d6174683a206164646974696f6e206f766572666c6f770000000000604482015290519081900360640190fd5b9392505050565b505050565b6001600160a01b038316610be65760405162461bcd60e51b815260040180806020018281038252602481526020018061146d6024913960400191505060405180910390fd5b6001600160a01b038216610c2b5760405162461bcd60e51b81526004018080602001828103825260228152602001806113706022913960400191505060405180910390fd5b6001600160a01b03808416600081815260016020908152604080832094871680845294825291829020859055815185815291517f8c5be1e5ebec7d5bd14f71427d1e84f3dd0314c0f7b2291e5b200ac8c7c3b9259281900390910190a3505050565b6001600160a01b038316610cd25760405162461bcd60e51b81526004018080602001828103825260258152602001806114486025913960400191505060405180910390fd5b6001600160a01b038216610d175760405162461bcd60e51b81526004018080602001828103825260238152602001806113056023913960400191505060405180910390fd5b610d2283838361119b565b610d5f81604051806060016040528060268152602001611392602691396001600160a01b0386166000908152602081905260409020549190610de8565b6001600160a01b038085166000908152602081905260408082209390935590841681522054610d8e9082610b3b565b6001600160a01b038084166000818152602081815260409182902094909455805185815290519193928716927fddf252ad1be2c89b69c2b068fc378daa952ba7f163c4a11628f55a4df523b3ef92918290030190a3505050565b60008184841115610e775760405162461bcd60e51b81526004018080602001828103825283818151815260200191508051906020019080838360005b83811015610e3c578181015183820152602001610e24565b50505050905090810190601f168015610e695780820380516001836020036101000a031916815260200191505b509250505060405180910390fd5b505050900390565b3390565b610e8b610695565b610ed3576040805162461bcd60e51b815260206004820152601460248201527314185d5cd8589b194e881b9bdd081c185d5cd95960621b604482015290519081900360640190fd5b6005805460ff60a81b191690557f5db9ee0a495bf2e6ff9c91a7834c1ba4fdd244a5e8aa4e537bd38aeae4b073aa610f09610e7f565b604080516001600160a01b039092168252519081900360200190a1565b6001600160a01b038216610f81576040805162461bcd60e51b815260206004820152601f60248201527f45524332303a206d696e7420746f20746865207a65726f206164647265737300604482015290519081900360640190fd5b610f8d6000838361119b565b600254610f9a9082610b3b565b6002556001600160a01b038216600090815260208190526040902054610fc09082610b3b565b6001600160a01b0383166000818152602081815260408083209490945583518581529351929391927fddf252ad1be2c89b69c2b068fc378daa952ba7f163c4a11628f55a4df523b3ef9281900390910190a35050565b61101e610695565b15611063576040805162461bcd60e51b815260206004820152601060248201526f14185d5cd8589b194e881c185d5cd95960821b604482015290519081900360640190fd5b6005805460ff60a81b1916600160a81b1790557f62e78cea01bee320cd4e420270b5ea74000d11b0c9f74754ebdbfc544b05a258610f09610e7f565b6001600160a01b0382166110e45760405162461bcd60e51b81526004018080602001828103825260218152602001806114276021913960400191505060405180910390fd5b6110f08260008361119b565b61112d81604051806060016040528060228152602001611328602291396001600160a01b0385166000908152602081905260409020549190610de8565b6001600160a01b03831660009081526020819052604090205560025461115390826112a7565b6002556040805182815290516000916001600160a01b038516917fddf252ad1be2c89b69c2b068fc378daa952ba7f163c4a11628f55a4df523b3ef9181900360200190a35050565b6111a3610e7f565b6001600160a01b03166111b46107dc565b6001600160a01b0316146111fd576040805162461bcd60e51b81526020600482018190526024820152600080516020611407833981519152604482015290519081900360640190fd5b611208838383610b9c565b611210610695565b1561124c5760405162461bcd60e51b81526004018080602001828103825260278152602001806113b86027913960400191505060405180910390fd5b61125533610a0f565b15610b9c576040805162461bcd60e51b815260206004820152601e60248201527f45524332303a2073656e64657220696e2074686520626c61636b6c6973740000604482015290519081900360640190fd5b6000828211156112fe576040805162461bcd60e51b815260206004820152601e60248201527f536166654d6174683a207375627472616374696f6e206f766572666c6f770000604482015290519081900360640190fd5b5090039056fe45524332303a207472616e7366657220746f20746865207a65726f206164647265737345524332303a206275726e20616d6f756e7420657863656564732062616c616e63654f776e61626c653a206e6577206f776e657220697320746865207a65726f206164647265737345524332303a20617070726f766520746f20746865207a65726f206164647265737345524332303a207472616e7366657220616d6f756e7420657863656564732062616c616e63654552433230426f6e75733a20746f6b656e207472616e73666572207768696c652070617573656445524332303a207472616e7366657220616d6f756e74206578636565647320616c6c6f77616e63654f776e61626c653a2063616c6c6572206973206e6f7420746865206f776e657245524332303a206275726e2066726f6d20746865207a65726f206164647265737345524332303a207472616e736665722066726f6d20746865207a65726f206164647265737345524332303a20617070726f76652066726f6d20746865207a65726f206164647265737345524332303a2064656372656173656420616c6c6f77616e63652062656c6f77207a65726fa264697066735822122091ffdde3f93e5b49067e31dd1adc4d5081184b6c50aa73d3d12ec96fb06ced3c64736f6c634300060c00334552433230426f6e75733a20746f6b656e207472616e73666572207768696c6520706175736564",
  "immutableReferences": {},
  "source": "// SPDX-License-Identifier: UNLICENSED\n// solhint-disable not-rely-on-time\n// solhint-disable reason-string\n\npragma solidity 0.8.20;\n\nimport \"@openzeppelin/contracts/utils/Pausable.sol\";\nimport \"@openzeppelin/contracts/access/Ownable.sol\";\nimport \"./ERC20.sol\";\n\n/**\n * @dev Loyalty erc20 implementation\n */\ncontract LoyaltyERC20 is ERC20, Ownable, Pausable {\n    mapping(address => bool) private _blacklist;\n\n    event BlacklistUpdated(address indexed user, bool value, uint256 timestamp);\n \n    constructor(uint256 initialSupply, string memory tokenName, string memory tokenSymbol) public ERC20(tokenName, tokenSymbol) {\n        _mint(msg.sender, initialSupply);\n    }\n\n    function mint(address to, uint256 amount) public onlyOwner {\n        _mint(to, amount);\n    }\n\n    function burn(address to, uint256 amount) public onlyOwner {\n        _burn(to, amount);\n    }\n\n    function pause() public onlyOwner {\n        _pause();\n    }\n\n    function unpause() public onlyOwner {\n        _unpause();\n    }\n\n    function blacklistUpdate(address user, bool value)\n        public\n        virtual\n        onlyOwner\n    {\n        _blacklist[user] = value;\n        emit BlacklistUpdated(user, value, block.timestamp);\n    }\n\n    function isBlackListed(address user) public view returns (bool) {\n        return _blacklist[user];\n    }\n\n    function _beforeTokenTransfer(\n        address from,\n        address to,\n        uint256 amount\n    ) internal virtual override onlyOwner {\n        super._beforeTokenTransfer(from, to, amount);\n\n        require(!paused(), \"ERC20Bonus: token transfer while paused\");\n\n        require(\n            !isBlackListed(msg.sender),\n            \"ERC20: sender in the blacklist\"\n        );\n    }\n}\n",
  "sourcePath": "/Users/metaholf/work/contracts/contracts/tokens/LoyaltyERC20.sol",
  "compiler": {
    "name": "solc",
    "version": "0.8.20+commit.27d51765.Emscripten.clang"
  },
  "schemaVersion": "3.4.1",
  "updatedAt": "2021-06-07T07:15:19.965Z",
  "devdoc": {
    "details": "Loyalty erc20 implementation",
    "kind": "dev",
    "methods": {
      "allowance(address,address)": {
        "details": "See {IERC20-allowance}."
      },
      "approve(address,uint256)": {
        "details": "See {IERC20-approve}. Requirements: - `spender` cannot be the zero address."
      },
      "balanceOf(address)": {
        "details": "See {IERC20-balanceOf}."
      },
      "decimals()": {
        "details": "Returns the number of decimals used to get its user representation. For example, if `decimals` equals `2`, a balance of `505` tokens should be displayed to a user as `5,05` (`505 / 10 ** 2`). Tokens usually opt for a value of 18, imitating the relationship between Ether and Wei. This is the value {ERC20} uses, unless {_setupDecimals} is called. NOTE: This information is only used for _display_ purposes: it in no way affects any of the arithmetic of the contract, including {IERC20-balanceOf} and {IERC20-transfer}."
      },
      "decreaseAllowance(address,uint256)": {
        "details": "Atomically decreases the allowance granted to `spender` by the caller. This is an alternative to {approve} that can be used as a mitigation for problems described in {IERC20-approve}. Emits an {Approval} event indicating the updated allowance. Requirements: - `spender` cannot be the zero address. - `spender` must have allowance for the caller of at least `subtractedValue`."
      },
      "increaseAllowance(address,uint256)": {
        "details": "Atomically increases the allowance granted to `spender` by the caller. This is an alternative to {approve} that can be used as a mitigation for problems described in {IERC20-approve}. Emits an {Approval} event indicating the updated allowance. Requirements: - `spender` cannot be the zero address."
      },
      "name()": {
        "details": "Returns the name of the token."
      },
      "owner()": {
        "details": "Returns the address of the current owner."
      },
      "paused()": {
        "details": "Returns true if the contract is paused, and false otherwise."
      },
      "renounceOwnership()": {
        "details": "Leaves the contract without owner. It will not be possible to call `onlyOwner` functions anymore. Can only be called by the current owner. NOTE: Renouncing ownership will leave the contract without an owner, thereby removing any functionality that is only available to the owner."
      },
      "symbol()": {
        "details": "Returns the symbol of the token, usually a shorter version of the name."
      },
      "totalSupply()": {
        "details": "See {IERC20-totalSupply}."
      },
      "transfer(address,uint256)": {
        "details": "See {IERC20-transfer}. Requirements: - `recipient` cannot be the zero address. - the caller must have a balance of at least `amount`."
      },
      "transferFrom(address,address,uint256)": {
        "details": "See {IERC20-transferFrom}. Emits an {Approval} event indicating the updated allowance. This is not required by the EIP. See the note at the beginning of {ERC20}; Requirements: - `sender` and `recipient` cannot be the zero address. - `sender` must have a balance of at least `amount`. - the caller must have allowance for ``sender``'s tokens of at least `amount`."
      },
      "transferOwnership(address)": {
        "details": "Transfers ownership of the contract to a new account (`newOwner`). Can only be called by the current owner."
      }
    },
    "version": 1
  },
  "userdoc": {
    "kind": "user",
    "methods": {},
    "version": 1
  }
}