{
  "_format": "hh-sol-artifact-1",
  "contractName": "LoyaltyRouter",
  "sourceName": "contracts/main/LoyaltyRouter.sol",
  "abi": [
    {
      "inputs": [
        {
          "internalType": "address",
          "name": "coreAddress",
          "type": "address"
        }
      ],
      "stateMutability": "nonpayable",
      "type": "constructor"
    },
    {
      "anonymous": false,
      "inputs": [
        {
          "indexed": true,
          "internalType": "address",
          "name": "contractAddress",
          "type": "address"
        },
        {
          "indexed": false,
          "internalType": "uint256",
          "name": "entityId",
          "type": "uint256"
        },
        {
          "indexed": true,
          "internalType": "address",
          "name": "owner",
          "type": "address"
        },
        {
          "indexed": false,
          "internalType": "uint256",
          "name": "_timestamp",
          "type": "uint256"
        }
      ],
      "name": "DeployAndRegister",
      "type": "event"
    },
    {
      "inputs": [
        {
          "components": [
            {
              "internalType": "address",
              "name": "target",
              "type": "address"
            },
            {
              "internalType": "bytes",
              "name": "callData",
              "type": "bytes"
            }
          ],
          "internalType": "struct LoyaltyRouter.Call[]",
          "name": "calls",
          "type": "tuple[]"
        }
      ],
      "name": "aggregateCall",
      "outputs": [
        {
          "internalType": "uint256",
          "name": "blockNumber",
          "type": "uint256"
        },
        {
          "internalType": "bytes[]",
          "name": "returnData",
          "type": "bytes[]"
        }
      ],
      "stateMutability": "view",
      "type": "function"
    },
    {
      "inputs": [],
      "name": "coreContract",
      "outputs": [
        {
          "internalType": "address",
          "name": "",
          "type": "address"
        }
      ],
      "stateMutability": "view",
      "type": "function"
    },
    {
      "inputs": [
        {
          "internalType": "bytes",
          "name": "bytecode",
          "type": "bytes"
        },
        {
          "internalType": "bytes",
          "name": "settingsData",
          "type": "bytes"
        },
        {
          "internalType": "bytes",
          "name": "othersData",
          "type": "bytes"
        },
        {
          "internalType": "string",
          "name": "metaData",
          "type": "string"
        }
      ],
      "name": "deployAndRegister",
      "outputs": [
        {
          "internalType": "address",
          "name": "contractAddress",
          "type": "address"
        },
        {
          "internalType": "uint256",
          "name": "entityId",
          "type": "uint256"
        },
        {
          "internalType": "address",
          "name": "owner",
          "type": "address"
        }
      ],
      "stateMutability": "nonpayable",
      "type": "function"
    },
    {
      "inputs": [
        {
          "internalType": "address",
          "name": "target",
          "type": "address"
        }
      ],
      "name": "entityCountByOwner",
      "outputs": [
        {
          "internalType": "uint256",
          "name": "",
          "type": "uint256"
        }
      ],
      "stateMutability": "view",
      "type": "function"
    },
    {
      "inputs": [
        {
          "internalType": "address",
          "name": "target",
          "type": "address"
        }
      ],
      "name": "entityCountByRegistrar",
      "outputs": [
        {
          "internalType": "uint256",
          "name": "",
          "type": "uint256"
        }
      ],
      "stateMutability": "view",
      "type": "function"
    },
    {
      "inputs": [
        {
          "internalType": "address",
          "name": "target",
          "type": "address"
        }
      ],
      "name": "entityCountByUser",
      "outputs": [
        {
          "internalType": "uint256",
          "name": "",
          "type": "uint256"
        }
      ],
      "stateMutability": "view",
      "type": "function"
    },
    {
      "inputs": [
        {
          "internalType": "address",
          "name": "target",
          "type": "address"
        }
      ],
      "name": "entityListByOwner",
      "outputs": [
        {
          "internalType": "uint256[]",
          "name": "",
          "type": "uint256[]"
        }
      ],
      "stateMutability": "view",
      "type": "function"
    },
    {
      "inputs": [
        {
          "internalType": "address",
          "name": "target",
          "type": "address"
        }
      ],
      "name": "entityListByRegistrar",
      "outputs": [
        {
          "internalType": "uint256[]",
          "name": "",
          "type": "uint256[]"
        }
      ],
      "stateMutability": "view",
      "type": "function"
    },
    {
      "inputs": [
        {
          "internalType": "address",
          "name": "target",
          "type": "address"
        }
      ],
      "name": "entityListByUser",
      "outputs": [
        {
          "internalType": "uint256[]",
          "name": "",
          "type": "uint256[]"
        }
      ],
      "stateMutability": "view",
      "type": "function"
    },
    {
      "inputs": [],
      "name": "entityTotal",
      "outputs": [
        {
          "internalType": "uint256",
          "name": "",
          "type": "uint256"
        }
      ],
      "stateMutability": "view",
      "type": "function"
    },
    {
      "inputs": [
        {
          "internalType": "uint256[]",
          "name": "entityList",
          "type": "uint256[]"
        }
      ],
      "name": "extractEntityList",
      "outputs": [
        {
          "components": [
            {
              "internalType": "address",
              "name": "contractAddress",
              "type": "address"
            },
            {
              "internalType": "uint256",
              "name": "id",
              "type": "uint256"
            },
            {
              "internalType": "address",
              "name": "registrar",
              "type": "address"
            }
          ],
          "internalType": "struct ILoyaltyCore.LoyaltyEntity[]",
          "name": "",
          "type": "tuple[]"
        }
      ],
      "stateMutability": "view",
      "type": "function"
    },
    {
      "inputs": [
        {
          "internalType": "address",
          "name": "entityAddress",
          "type": "address"
        }
      ],
      "name": "getEntity",
      "outputs": [
        {
          "internalType": "address",
          "name": "contractAddress",
          "type": "address"
        },
        {
          "internalType": "uint256",
          "name": "entityId",
          "type": "uint256"
        },
        {
          "internalType": "address",
          "name": "registrar",
          "type": "address"
        }
      ],
      "stateMutability": "view",
      "type": "function"
    },
    {
      "inputs": [
        {
          "internalType": "uint256",
          "name": "id",
          "type": "uint256"
        }
      ],
      "name": "getEntity",
      "outputs": [
        {
          "internalType": "address",
          "name": "contractAddress",
          "type": "address"
        },
        {
          "internalType": "uint256",
          "name": "entityId",
          "type": "uint256"
        },
        {
          "internalType": "address",
          "name": "registrar",
          "type": "address"
        }
      ],
      "stateMutability": "view",
      "type": "function"
    },
    {
      "inputs": [
        {
          "internalType": "uint256",
          "name": "entityId",
          "type": "uint256"
        }
      ],
      "name": "getEntityABIs",
      "outputs": [
        {
          "internalType": "string",
          "name": "settings_abi",
          "type": "string"
        },
        {
          "internalType": "string",
          "name": "others_abi",
          "type": "string"
        },
        {
          "internalType": "string",
          "name": "purchase_abi_in",
          "type": "string"
        },
        {
          "internalType": "string",
          "name": "purchase_abi_out",
          "type": "string"
        },
        {
          "internalType": "string",
          "name": "user_abi_in",
          "type": "string"
        },
        {
          "internalType": "string",
          "name": "user_abi_out",
          "type": "string"
        }
      ],
      "stateMutability": "view",
      "type": "function"
    },
    {
      "inputs": [
        {
          "internalType": "address",
          "name": "entityAddress",
          "type": "address"
        }
      ],
      "name": "getEntityABIs",
      "outputs": [
        {
          "internalType": "string",
          "name": "settings_abi",
          "type": "string"
        },
        {
          "internalType": "string",
          "name": "others_abi",
          "type": "string"
        },
        {
          "internalType": "string",
          "name": "purchase_abi_in",
          "type": "string"
        },
        {
          "internalType": "string",
          "name": "purchase_abi_out",
          "type": "string"
        },
        {
          "internalType": "string",
          "name": "user_abi_in",
          "type": "string"
        },
        {
          "internalType": "string",
          "name": "user_abi_out",
          "type": "string"
        }
      ],
      "stateMutability": "view",
      "type": "function"
    },
    {
      "inputs": [
        {
          "internalType": "address",
          "name": "entityAddress",
          "type": "address"
        }
      ],
      "name": "getEntityDetails",
      "outputs": [
        {
          "internalType": "bool",
          "name": "isInited",
          "type": "bool"
        },
        {
          "internalType": "bytes",
          "name": "settings",
          "type": "bytes"
        },
        {
          "internalType": "bytes",
          "name": "others",
          "type": "bytes"
        },
        {
          "internalType": "string",
          "name": "metadataURI",
          "type": "string"
        },
        {
          "internalType": "address[]",
          "name": "erc20tokens",
          "type": "address[]"
        },
        {
          "internalType": "address[]",
          "name": "erc721tokens",
          "type": "address[]"
        },
        {
          "internalType": "address[]",
          "name": "erc1155tokens",
          "type": "address[]"
        },
        {
          "internalType": "string",
          "name": "currencyCode",
          "type": "string"
        },
        {
          "internalType": "uint256",
          "name": "currencyDecimals",
          "type": "uint256"
        },
        {
          "internalType": "uint256",
          "name": "totalUsers",
          "type": "uint256"
        },
        {
          "internalType": "address",
          "name": "owner",
          "type": "address"
        },
        {
          "internalType": "string",
          "name": "implName",
          "type": "string"
        }
      ],
      "stateMutability": "view",
      "type": "function"
    },
    {
      "inputs": [
        {
          "internalType": "uint256",
          "name": "entityId",
          "type": "uint256"
        }
      ],
      "name": "getEntityDetails",
      "outputs": [
        {
          "internalType": "bool",
          "name": "isInited",
          "type": "bool"
        },
        {
          "internalType": "bytes",
          "name": "settings",
          "type": "bytes"
        },
        {
          "internalType": "bytes",
          "name": "others",
          "type": "bytes"
        },
        {
          "internalType": "string",
          "name": "metadataURI",
          "type": "string"
        },
        {
          "internalType": "address[]",
          "name": "erc20tokens",
          "type": "address[]"
        },
        {
          "internalType": "address[]",
          "name": "erc721tokens",
          "type": "address[]"
        },
        {
          "internalType": "address[]",
          "name": "erc1155tokens",
          "type": "address[]"
        },
        {
          "internalType": "string",
          "name": "currencyCode",
          "type": "string"
        },
        {
          "internalType": "uint256",
          "name": "currencyDecimals",
          "type": "uint256"
        },
        {
          "internalType": "uint256",
          "name": "totalUsers",
          "type": "uint256"
        },
        {
          "internalType": "address",
          "name": "owner",
          "type": "address"
        },
        {
          "internalType": "string",
          "name": "implName",
          "type": "string"
        }
      ],
      "stateMutability": "view",
      "type": "function"
    },
    {
      "stateMutability": "payable",
      "type": "receive"
    }
  ],
  "bytecode": "0x60806040523480156200001157600080fd5b50604051620028ff380380620028ff8339810160408190526200003491620000af565b6001600160a01b038116620000665760405162461bcd60e51b81526004016200005d90620000df565b60405180910390fd5b803b80620000885760405162461bcd60e51b81526004016200005d9062000116565b50600080546001600160a01b0319166001600160a01b03929092169190911790556200015c565b600060208284031215620000c1578081fd5b81516001600160a01b0381168114620000d8578182fd5b9392505050565b6020808252601b908201527f4c6f79616c7479526f757465723a207a65726f20616464726573730000000000604082015260600190565b60208082526026908201527f4c6f79616c7479526f757465723a20636f7265206d757374206265206120636f6040820152651b9d1c9858dd60d21b606082015260800190565b612793806200016c6000396000f3fe6080604052600436106101025760003560e01c8063987ea02d11610095578063b443daf511610064578063b443daf51461030c578063d20889211461032c578063e80db5db1461034c578063f2acbcdc1461036e578063fff1373f1461039b57610128565b8063987ea02d1461027a578063aca7ce21146102ac578063b0a08669146102cc578063b3a27842146102ec57610128565b80632be837ec116100d15780632be837ec146101df5780636d97971d1461021757806375894e8c1461022c578063834e11ca1461024c57610128565b806301e375151461012d5780630453a9ed14610163578063059ef4991461018357806315f9f916146101b057610128565b366101285760405162461bcd60e51b815260040161011f906125eb565b60405180910390fd5b600080fd5b34801561013957600080fd5b5061014d610148366004611dd3565b6103bb565b60405161015a919061262e565b60405180910390f35b34801561016f57600080fd5b5061014d61017e366004611dd3565b6103cd565b34801561018f57600080fd5b506101a361019e366004611dd3565b6103d8565b60405161015a9190612385565b3480156101bc57600080fd5b506101d06101cb36600461211e565b610463565b60405161015a939291906122fc565b3480156101eb57600080fd5b506101ff6101fa366004611dd3565b610625565b60405161015a9c9b9a999897969594939291906123c9565b34801561022357600080fd5b5061014d610700565b34801561023857600080fd5b506101d0610247366004611dd3565b61078c565b34801561025857600080fd5b5061026c610267366004611eec565b61081e565b60405161015a929190612637565b34801561028657600080fd5b5061029a6102953660046121c5565b610967565b60405161015a969594939291906124a5565b3480156102b857600080fd5b506101a36102c7366004611dd3565b610a17565b3480156102d857600080fd5b506101a36102e7366004611dd3565b610a22565b3480156102f857600080fd5b506101d06103073660046121c5565b610a2d565b34801561031857600080fd5b5061014d610327366004611dd3565b610a62565b34801561033857600080fd5b506101ff6103473660046121c5565b610ae3565b34801561035857600080fd5b50610361610b39565b60405161015a9190612293565b34801561037a57600080fd5b5061038e610389366004611fbe565b610b48565b60405161015a919061231f565b3480156103a757600080fd5b5061029a6103b6366004611dd3565b610cab565b60006103c682610ce9565b5192915050565b60006103c6826110bc565b60005460405163059ef49960e01b81526060916001600160a01b03169063059ef49990610409908590600401612293565b60006040518083038186803b15801561042157600080fd5b505afa158015610435573d6000803e3d6000fd5b505050506040513d6000823e601f3d908101601f1916820160405261045d9190810190612041565b92915050565b600080600086516000141561048a5760405162461bcd60e51b815260040161011f90612527565b60008751602089016000f090506001600160a01b0381166104bd5760405162461bcd60e51b815260040161011f9061259a565b604051633520ed0960e01b815281906001600160a01b03821690633520ed09906104f19033908c908c908c906004016122a7565b602060405180830381600087803b15801561050b57600080fd5b505af115801561051f573d6000803e3d6000fd5b505050506040513d601f19601f8201168201806040525081019061054391906120c4565b5060005460405163ebb9943160e01b81526001600160a01b0390911690819063ebb9943190610576908690600401612293565b606060405180830381600087803b15801561059057600080fd5b505af11580156105a4573d6000803e3d6000fd5b505050506040513d601f19601f820116820180604052508101906105c89190611e12565b50604051919750955033945084906001600160a01b038816907fdd168e3c06548f72e35fe8ce2f60b2670ac1e575a372386b1f6d4d322099324490610610908990429061269f565b60405180910390a35050509450945094915050565b600060608060608060608060606000806000606060008060009054906101000a90046001600160a01b03166001600160a01b03166375894e8c8f6040518263ffffffff1660e01b815260040161067b9190612293565b60606040518083038186803b15801561069357600080fd5b505afa1580156106a7573d6000803e3d6000fd5b505050506040513d601f19601f820116820180604052508101906106cb9190611e12565b505090506106d881611479565b9c509c509c509c509c509c509c509c509c509c509c509c505091939597999b5091939597999b565b60008060009054906101000a90046001600160a01b03166001600160a01b0316636d97971d6040518163ffffffff1660e01b815260040160206040518083038186803b15801561074f57600080fd5b505afa158015610763573d6000803e3d6000fd5b505050506040513d601f19601f8201168201806040525081019061078791906121dd565b905090565b60008054604051631d6253a360e21b8152829182916001600160a01b03909116906375894e8c906107c1908790600401612293565b60606040518083038186803b1580156107d957600080fd5b505afa1580156107ed573d6000803e3d6000fd5b505050506040513d601f19601f820116820180604052508101906108119190611e12565b9250925092509193909250565b805143906060906001600160401b038111801561083a57600080fd5b5060405190808252806020026020018201604052801561086e57816020015b60608152602001906001900390816108595790505b50905060005b8351811015610961576000606085838151811061088d57fe5b6020026020010151600001516001600160a01b03168684815181106108ae57fe5b6020026020010151602001516040516108c79190612277565b600060405180830381855afa9150503d8060008114610902576040519150601f19603f3d011682016040523d82523d6000602084013e610907565b606091505b5091509150811561092f578084848151811061091f57fe5b6020026020010181905250610957565b6040518060200160405280600081525084848151811061094b57fe5b60200260200101819052505b5050600101610874565b50915091565b600080546040516359d13c2160e11b8152606092839283928392839283926001600160a01b039091169063b3a27842906109a5908b9060040161262e565b60606040518083038186803b1580156109bd57600080fd5b505afa1580156109d1573d6000803e3d6000fd5b505050506040513d601f19601f820116820180604052508101906109f59190611e12565b50509050610a0281611a26565b949d939c50919a509850965090945092505050565b606061045d82610ce9565b606061045d826110bc565b600080546040516359d13c2160e11b8152829182916001600160a01b039091169063b3a27842906107c190879060040161262e565b6000805460405163b443daf560e01b81526001600160a01b039091169063b443daf590610a93908590600401612293565b60206040518083038186803b158015610aab57600080fd5b505afa158015610abf573d6000803e3d6000fd5b505050506040513d601f19601f8201168201806040525081019061045d91906121dd565b600060608060608060608060606000806000606060008060009054906101000a90046001600160a01b03166001600160a01b031663b3a278428f6040518263ffffffff1660e01b815260040161067b919061262e565b6000546001600160a01b031690565b60005481516060916001600160a01b03169082906001600160401b0381118015610b7157600080fd5b50604051908082528060200260200182016040528015610bab57816020015b610b98611d08565b815260200190600190039081610b905790505b50905060005b8151811015610ca3576000806000856001600160a01b031663b3a27842898681518110610bda57fe5b60200260200101516040518263ffffffff1660e01b8152600401610bfe919061262e565b60606040518083038186803b158015610c1657600080fd5b505afa158015610c2a573d6000803e3d6000fd5b505050506040513d601f19601f82011682018060405250810190610c4e9190611e12565b9250925092506040518060600160405280846001600160a01b03168152602001838152602001826001600160a01b0316815250858581518110610c8d57fe5b6020908102919091010152505050600101610bb1565b509392505050565b60008054604051631d6253a360e21b8152606092839283928392839283926001600160a01b03909116906375894e8c906109a5908b90600401612293565b606060008060009054906101000a90046001600160a01b031690506000816001600160a01b0316636d97971d6040518163ffffffff1660e01b815260040160206040518083038186803b158015610d3f57600080fd5b505afa158015610d53573d6000803e3d6000fd5b505050506040513d601f19601f82011682018060405250810190610d7791906121dd565b90506000805b82811015610ee5576040516359d13c2160e11b81526000906001600160a01b0386169063b3a2784290610db490859060040161262e565b60606040518083038186803b158015610dcc57600080fd5b505afa158015610de0573d6000803e3d6000fd5b505050506040513d601f19601f82011682018060405250810190610e049190611e12565b505060408051600481526024810182526020810180516001600160e01b0316631127a41d60e31b17905290519192506000916060916001600160a01b03851691610e4e9190612277565b600060405180830381855afa9150503d8060008114610e89576040519150601f19603f3d011682016040523d82523d6000602084013e610e8e565b606091505b5091509150600081806020019051810190610ea99190611df6565b9050828015610ec95750806001600160a01b03168a6001600160a01b0316145b15610ed5576001909501945b505060019092019150610d7d9050565b506060816001600160401b0381118015610efe57600080fd5b50604051908082528060200260200182016040528015610f28578160200160208202803683370190505b5090506000915060005b838110156110b2576040516359d13c2160e11b81526000906001600160a01b0387169063b3a2784290610f6990859060040161262e565b60606040518083038186803b158015610f8157600080fd5b505afa158015610f95573d6000803e3d6000fd5b505050506040513d601f19601f82011682018060405250810190610fb99190611e12565b505060408051600481526024810182526020810180516001600160e01b0316631127a41d60e31b17905290519192506000916060916001600160a01b038516916110039190612277565b600060405180830381855afa9150503d806000811461103e576040519150601f19603f3d011682016040523d82523d6000602084013e611043565b606091505b509150915060008180602001905181019061105e9190611df6565b905082801561107e5750806001600160a01b03168b6001600160a01b0316145b156110a2578486888151811061109057fe5b60209081029190910101526001909601955b505060019092019150610f329050565b5095945050505050565b606060008060009054906101000a90046001600160a01b031690506000816001600160a01b0316636d97971d6040518163ffffffff1660e01b815260040160206040518083038186803b15801561111257600080fd5b505afa158015611126573d6000803e3d6000fd5b505050506040513d601f19601f8201168201806040525081019061114a91906121dd565b90506000805b828110156112b2576040516359d13c2160e11b81526000906001600160a01b0386169063b3a278429061118790859060040161262e565b60606040518083038186803b15801561119f57600080fd5b505afa1580156111b3573d6000803e3d6000fd5b505050506040513d601f19601f820116820180604052508101906111d79190611e12565b5050905060006060826001600160a01b0316896040516024016111fa9190612293565b60408051601f198184030181529181526020820180516001600160e01b031663012afd0f60e11b1790525161122f9190612277565b600060405180830381855afa9150503d806000811461126a576040519150601f19603f3d011682016040523d82523d6000602084013e61126f565b606091505b509150915060008180602001905181019061128a91906120c4565b90508280156112965750805b156112a2576001909501945b5050600190920191506111509050565b506060816001600160401b03811180156112cb57600080fd5b506040519080825280602002602001820160405280156112f5578160200160208202803683370190505b5090506000915060005b838110156110b2576040516359d13c2160e11b81526000906001600160a01b0387169063b3a278429061133690859060040161262e565b60606040518083038186803b15801561134e57600080fd5b505afa158015611362573d6000803e3d6000fd5b505050506040513d601f19601f820116820180604052508101906113869190611e12565b5050905060006060826001600160a01b03168a6040516024016113a99190612293565b60408051601f198184030181529181526020820180516001600160e01b031663012afd0f60e11b179052516113de9190612277565b600060405180830381855afa9150503d8060008114611419576040519150601f19603f3d011682016040523d82523d6000602084013e61141e565b606091505b509150915060008180602001905181019061143991906120c4565b90508280156114455750805b15611469578486888151811061145757fe5b60209081029190910101526001909601955b5050600190920191506112ff9050565b600060608060608060608060606000806000606060008d9050806001600160a01b031663392e53cd6040518163ffffffff1660e01b815260040160206040518083038186803b1580156114cb57600080fd5b505afa1580156114df573d6000803e3d6000fd5b505050506040513d601f19601f8201168201806040525081019061150391906120c4565b9c50806001600160a01b031663e06174e46040518163ffffffff1660e01b815260040160006040518083038186803b15801561153e57600080fd5b505afa158015611552573d6000803e3d6000fd5b505050506040513d6000823e601f3d908101601f1916820160405261157a91908101906120e4565b9b50806001600160a01b031663fcd802b16040518163ffffffff1660e01b815260040160006040518083038186803b1580156115b557600080fd5b505afa1580156115c9573d6000803e3d6000fd5b505050506040513d6000823e601f3d908101601f191682016040526115f191908101906120e4565b9a50806001600160a01b03166303ee438c6040518163ffffffff1660e01b815260040160006040518083038186803b15801561162c57600080fd5b505afa158015611640573d6000803e3d6000fd5b505050506040513d6000823e601f3d908101601f1916820160405261166891908101906120e4565b9950806001600160a01b0316630f4ec95e6040518163ffffffff1660e01b815260040160006040518083038186803b1580156116a357600080fd5b505afa1580156116b7573d6000803e3d6000fd5b505050506040513d6000823e601f3d908101601f191682016040526116df9190810190611e54565b9850806001600160a01b031663f05090226040518163ffffffff1660e01b815260040160006040518083038186803b15801561171a57600080fd5b505afa15801561172e573d6000803e3d6000fd5b505050506040513d6000823e601f3d908101601f191682016040526117569190810190611e54565b9750806001600160a01b0316633b8723446040518163ffffffff1660e01b815260040160006040518083038186803b15801561179157600080fd5b505afa1580156117a5573d6000803e3d6000fd5b505050506040513d6000823e601f3d908101601f191682016040526117cd9190810190611e54565b9650806001600160a01b031663e102e5e36040518163ffffffff1660e01b815260040160006040518083038186803b15801561180857600080fd5b505afa15801561181c573d6000803e3d6000fd5b505050506040513d6000823e601f3d908101601f1916820160405261184491908101906120e4565b9550806001600160a01b0316637624388e6040518163ffffffff1660e01b815260040160206040518083038186803b15801561187f57600080fd5b505afa158015611893573d6000803e3d6000fd5b505050506040513d601f19601f820116820180604052508101906118b791906121dd565b9450806001600160a01b031663bff1f9e16040518163ffffffff1660e01b815260040160206040518083038186803b1580156118f257600080fd5b505afa158015611906573d6000803e3d6000fd5b505050506040513d601f19601f8201168201806040525081019061192a91906121dd565b9350806001600160a01b031663893d20e86040518163ffffffff1660e01b815260040160206040518083038186803b15801561196557600080fd5b505afa158015611979573d6000803e3d6000fd5b505050506040513d601f19601f8201168201806040525081019061199d9190611df6565b9250806001600160a01b0316639b4fd4256040518163ffffffff1660e01b815260040160006040518083038186803b1580156119d857600080fd5b505afa1580156119ec573d6000803e3d6000fd5b505050506040513d6000823e601f3d908101601f19168201604052611a1491908101906120e4565b91505091939597999b5091939597999b565b6060806060806060806000879050806001600160a01b0316631f8ceb706040518163ffffffff1660e01b815260040160006040518083038186803b158015611a6d57600080fd5b505afa158015611a81573d6000803e3d6000fd5b505050506040513d6000823e601f3d908101601f19168201604052611aa991908101906120e4565b9650806001600160a01b03166321be89606040518163ffffffff1660e01b815260040160006040518083038186803b158015611ae457600080fd5b505afa158015611af8573d6000803e3d6000fd5b505050506040513d6000823e601f3d908101601f19168201604052611b2091908101906120e4565b9550806001600160a01b031663d9bd26046040518163ffffffff1660e01b815260040160006040518083038186803b158015611b5b57600080fd5b505afa158015611b6f573d6000803e3d6000fd5b505050506040513d6000823e601f3d908101601f19168201604052611b9791908101906120e4565b9450806001600160a01b031663c86a006f6040518163ffffffff1660e01b815260040160006040518083038186803b158015611bd257600080fd5b505afa158015611be6573d6000803e3d6000fd5b505050506040513d6000823e601f3d908101601f19168201604052611c0e91908101906120e4565b9350806001600160a01b031663612925696040518163ffffffff1660e01b815260040160006040518083038186803b158015611c4957600080fd5b505afa158015611c5d573d6000803e3d6000fd5b505050506040513d6000823e601f3d908101601f19168201604052611c8591908101906120e4565b9250806001600160a01b031663e63b72616040518163ffffffff1660e01b815260040160006040518083038186803b158015611cc057600080fd5b505afa158015611cd4573d6000803e3d6000fd5b505050506040513d6000823e601f3d908101601f19168201604052611cfc91908101906120e4565b91505091939550919395565b604080516060810182526000808252602082018190529181019190915290565b803561045d81612745565b600082601f830112611d43578081fd5b8135611d56611d51826126f2565b6126ad565b9150808252836020828501011115611d6d57600080fd5b8060208401602084013760009082016020015292915050565b600082601f830112611d96578081fd5b8151611da4611d51826126f2565b9150808252836020828501011115611dbb57600080fd5b611dcc816020840160208601612715565b5092915050565b600060208284031215611de4578081fd5b8135611def81612745565b9392505050565b600060208284031215611e07578081fd5b8151611def81612745565b600080600060608486031215611e26578182fd5b8351611e3181612745565b602085015160408601519194509250611e4981612745565b809150509250925092565b60006020808385031215611e66578182fd5b82516001600160401b03811115611e7b578283fd5b8301601f81018513611e8b578283fd5b8051611e99611d51826126d3565b8181528381019083850185840285018601891015611eb5578687fd5b8694505b83851015611ee0578051611ecc81612745565b835260019490940193918501918501611eb9565b50979650505050505050565b60006020808385031215611efe578182fd5b82356001600160401b0380821115611f14578384fd5b818501915085601f830112611f27578384fd5b8135611f35611d51826126d3565b81815284810190848601875b84811015611faf5781358701604080601f19838f03011215611f61578a8bfd5b611f6a816126ad565b611f768e8c8501611d28565b8152908201359088821115611f89578b8cfd5b611f978e8c84860101611d33565b818c0152865250509287019290870190600101611f41565b50909998505050505050505050565b60006020808385031215611fd0578182fd5b82356001600160401b03811115611fe5578283fd5b8301601f81018513611ff5578283fd5b8035612003611d51826126d3565b818152838101908385018584028501860189101561201f578687fd5b8694505b83851015611ee0578035835260019490940193918501918501612023565b60006020808385031215612053578182fd5b82516001600160401b03811115612068578283fd5b8301601f81018513612078578283fd5b8051612086611d51826126d3565b81815283810190838501858402850186018910156120a2578687fd5b8694505b83851015611ee05780518352600194909401939185019185016120a6565b6000602082840312156120d5578081fd5b81518015158114611def578182fd5b6000602082840312156120f5578081fd5b81516001600160401b0381111561210a578182fd5b61211684828501611d86565b949350505050565b60008060008060808587031215612133578182fd5b84356001600160401b0380821115612149578384fd5b61215588838901611d33565b9550602087013591508082111561216a578384fd5b61217688838901611d33565b9450604087013591508082111561218b578384fd5b61219788838901611d33565b935060608701359150808211156121ac578283fd5b506121b987828801611d33565b91505092959194509250565b6000602082840312156121d6578081fd5b5035919050565b6000602082840312156121ee578081fd5b5051919050565b6001600160a01b03169052565b6000815180845260208085019450808401835b8381101561223a5781516001600160a01b031687529582019590820190600101612215565b509495945050505050565b15159052565b60008151808452612263816020860160208601612715565b601f01601f19169290920160200192915050565b60008251612289818460208701612715565b9190910192915050565b6001600160a01b0391909116815260200190565b6001600160a01b03851681526080602082018190526000906122cb9083018661224b565b82810360408401526122dd818661224b565b905082810360608401526122f1818561224b565b979650505050505050565b6001600160a01b0393841681526020810192909252909116604082015260600190565b602080825282518282018190526000919060409081850190868401855b8281101561237857815180516001600160a01b03908116865287820151888701529086015116858501526060909301929085019060010161233c565b5091979650505050505050565b6020808252825182820181905260009190848201906040850190845b818110156123bd578351835292840192918401916001016123a1565b50909695505050505050565b60006123d5828f612245565b61018060208301526123eb61018083018e61224b565b82810360408401526123fd818e61224b565b90508281036060840152612411818d61224b565b90508281036080840152612425818c612202565b905082810360a0840152612439818b612202565b905082810360c084015261244d818a612202565b905082810360e0840152612461818961224b565b9050866101008401528561012084015261247f6101408401866121f5565b828103610160840152612492818561224b565b9f9e505050505050505050505050505050565b600060c082526124b860c083018961224b565b82810360208401526124ca818961224b565b905082810360408401526124de818861224b565b905082810360608401526124f2818761224b565b90508281036080840152612506818661224b565b905082810360a084015261251a818561224b565b9998505050505050505050565b6020808252604d908201527f4c6f79616c7479526f757465723a20736d61727420636f6e7472616374206f6660408201527f20746865207370656369666965642074797065206f66206c6f79616c7479206460608201526c1bd95cc81b9bdd08195e1a5cdd609a1b608082015260a00190565b60208082526031908201527f4c6f79616c7479526f757465723a206c6f79616c747920636f6e74726163742060408201527019195c1b1bde5b595b9d0819985a5b1959607a1b606082015260800190565b60208082526023908201527f4c6f79616c7479526f757465723a2063616e6e6f7420726563656976652065746040820152623432b960e91b606082015260800190565b90815260200190565b600060408201848352602060408185015281855180845260608601915060608382028701019350828701855b8281101561269157605f1988870301845261267f86835161224b565b95509284019290840190600101612663565b509398975050505050505050565b918252602082015260400190565b6040518181016001600160401b03811182821017156126cb57600080fd5b604052919050565b60006001600160401b038211156126e8578081fd5b5060209081020190565b60006001600160401b03821115612707578081fd5b50601f01601f191660200190565b60005b83811015612730578181015183820152602001612718565b8381111561273f576000848401525b50505050565b6001600160a01b038116811461275a57600080fd5b5056fea2646970667358221220b085c01d36ff26ad572ca89b50cb567aabcc8cfd658a087c0d50b0de703d9a7564736f6c634300060c0033",
  "linkReferences": {},
  "deployedLinkReferences": {}
}