{
  "_format": "hh-sol-artifact-1",
  "contractName": "LoyaltyCore",
  "sourceName": "contracts/main/LoyaltyCore.sol",
  "abi": [
    {
      "anonymous": false,
      "inputs": [
        {
          "indexed": false,
          "internalType": "address",
          "name": "contractAddress",
          "type": "address"
        },
        {
          "indexed": false,
          "internalType": "uint256",
          "name": "entityId",
          "type": "uint256"
        },
        {
          "indexed": true,
          "internalType": "address",
          "name": "registrar",
          "type": "address"
        },
        {
          "indexed": false,
          "internalType": "uint256",
          "name": "timestamp",
          "type": "uint256"
        }
      ],
      "name": "RegisterEntity",
      "type": "event"
    },
    {
      "inputs": [],
      "name": "coreVersion",
      "outputs": [
        {
          "internalType": "string",
          "name": "",
          "type": "string"
        }
      ],
      "stateMutability": "view",
      "type": "function"
    },
    {
      "inputs": [
        {
          "internalType": "address",
          "name": "target",
          "type": "address"
        }
      ],
      "name": "entityCountByRegistrar",
      "outputs": [
        {
          "internalType": "uint256",
          "name": "",
          "type": "uint256"
        }
      ],
      "stateMutability": "view",
      "type": "function"
    },
    {
      "inputs": [
        {
          "internalType": "address",
          "name": "target",
          "type": "address"
        }
      ],
      "name": "entityListByRegistrar",
      "outputs": [
        {
          "internalType": "uint256[]",
          "name": "",
          "type": "uint256[]"
        }
      ],
      "stateMutability": "view",
      "type": "function"
    },
    {
      "inputs": [],
      "name": "entityTotal",
      "outputs": [
        {
          "internalType": "uint256",
          "name": "",
          "type": "uint256"
        }
      ],
      "stateMutability": "view",
      "type": "function"
    },
    {
      "inputs": [
        {
          "internalType": "address",
          "name": "entityAddress",
          "type": "address"
        }
      ],
      "name": "getEntity",
      "outputs": [
        {
          "internalType": "address",
          "name": "contractAddress",
          "type": "address"
        },
        {
          "internalType": "uint256",
          "name": "entityId",
          "type": "uint256"
        },
        {
          "internalType": "address",
          "name": "registrar",
          "type": "address"
        }
      ],
      "stateMutability": "view",
      "type": "function"
    },
    {
      "inputs": [
        {
          "internalType": "uint256",
          "name": "id",
          "type": "uint256"
        }
      ],
      "name": "getEntity",
      "outputs": [
        {
          "internalType": "address",
          "name": "contractAddress",
          "type": "address"
        },
        {
          "internalType": "uint256",
          "name": "entityId",
          "type": "uint256"
        },
        {
          "internalType": "address",
          "name": "registrar",
          "type": "address"
        }
      ],
      "stateMutability": "view",
      "type": "function"
    },
    {
      "inputs": [
        {
          "internalType": "address",
          "name": "loyaltyContract",
          "type": "address"
        }
      ],
      "name": "registerEntity",
      "outputs": [
        {
          "internalType": "address",
          "name": "contractAddress",
          "type": "address"
        },
        {
          "internalType": "uint256",
          "name": "entityId",
          "type": "uint256"
        },
        {
          "internalType": "address",
          "name": "registrar",
          "type": "address"
        }
      ],
      "stateMutability": "nonpayable",
      "type": "function"
    },
    {
      "stateMutability": "payable",
      "type": "receive"
    }
  ],
  "bytecode": "0x60806040526000805534801561001457600080fd5b50610a5d806100246000396000f3fe6080604052600436106100745760003560e01c806375894e8c1161004e57806375894e8c146101e9578063b3a2784214610247578063b443daf514610271578063ebb99431146102a4576100b0565b8063059ef499146100b55780634e1d64af146101385780636d97971d146101c2576100b0565b366100b05760405162461bcd60e51b815260040180806020018281038252602181526020018061096b6021913960400191505060405180910390fd5b600080fd5b3480156100c157600080fd5b506100e8600480360360208110156100d857600080fd5b50356001600160a01b03166102d7565b60408051602080825283518183015283519192839290830191858101910280838360005b8381101561012457818101518382015260200161010c565b505050509050019250505060405180910390f35b34801561014457600080fd5b5061014d610343565b6040805160208082528351818301528351919283929083019185019080838360005b8381101561018757818101518382015260200161016f565b50505050905090810190601f1680156101b45780820380516001836020036101000a031916815260200191505b509250505060405180910390f35b3480156101ce57600080fd5b506101d7610360565b60408051918252519081900360200190f35b3480156101f557600080fd5b5061021c6004803603602081101561020c57600080fd5b50356001600160a01b0316610366565b604080516001600160a01b039485168152602081019390935292168183015290519081900360600190f35b34801561025357600080fd5b5061021c6004803603602081101561026a57600080fd5b50356103a4565b34801561027d57600080fd5b506101d76004803603602081101561029457600080fd5b50356001600160a01b031661041a565b3480156102b057600080fd5b5061021c600480360360208110156102c757600080fd5b50356001600160a01b0316610435565b6001600160a01b03811660009081526003602090815260409182902080548351818402810184019094528084526060939283018282801561033757602002820191906000526020600020905b815481526020019060010190808311610323575b50505050509050919050565b6040805180820190915260038152620312e360ec1b602082015290565b60005490565b6001600160a01b0390811660009081526002602081815260408084205484526001918290529092208054928101549101549183169390929190911690565b6000806000805484106103e85760405162461bcd60e51b815260040180806020018281038252602a8152602001806109fe602a913960400191505060405180910390fd5b50505060009081526001602081905260409091208054918101546002909101546001600160a01b039283169391921690565b6001600160a01b031660009081526003602052604090205490565b600080806001600160a01b038416610494576040805162461bcd60e51b815260206004820152601f60248201527f4c6f79616c7479436f72653a207a65726f2061646472657373206572726f7200604482015290519081900360640190fd5b833b806104d25760405162461bcd60e51b81526004018080602001828103825260268152602001806109b06026913960400191505060405180910390fd5b60408051600481526024810182526020810180516001600160e01b0316639b4fd42560e01b178152915181516000936001600160a01b038a169392918291908083835b602083106105345780518252601f199092019160209182019101610515565b6001836020036101000a038019825116818451168082178552505050505050905001915050600060405180830381855afa9150503d8060008114610594576040519150601f19603f3d011682016040523d82523d6000602084013e610599565b606091505b505060408051600481526024810182526020810180516001600160e01b0316633e92b8ed60e21b178152915181519394506000936001600160a01b038b169382918083835b602083106105fd5780518252601f1990920191602091820191016105de565b6001836020036101000a038019825116818451168082178552505050505050905001915050600060405180830381855afa9150503d806000811461065d576040519150601f19603f3d011682016040523d82523d6000602084013e610662565b606091505b505060408051600481526024810182526020810180516001600160e01b031663a832697760e01b178152915181519394506000936001600160a01b038c169382918083835b602083106106c65780518252601f1990920191602091820191016106a7565b6001836020036101000a038019825116818451168082178552505050505050905001915050600060405180830381855afa9150503d8060008114610726576040519150601f19603f3d011682016040523d82523d6000602084013e61072b565b606091505b505090508280156107395750815b80156107425750805b61077d5760405162461bcd60e51b81526004018080602001828103825260288152602001806109d66028913960400191505060405180910390fd5b876001600160a01b031663392e53cd6040518163ffffffff1660e01b815260040160206040518083038186803b1580156107b657600080fd5b505afa1580156107ca573d6000803e3d6000fd5b505050506040513d60208110156107e057600080fd5b505161081d5760405162461bcd60e51b815260040180806020018281038252602481526020018061098c6024913960400191505060405180910390fd5b60005461082b816001610909565b600090815560408051606080820183526001600160a01b03808e168084526020808501888152338688018181528a8a526001808552898b20985189549088166001600160a01b0319918216178a559351898201559051600298890180549190971693169290921790945582885294815285872088905582875260038152858720805495860181558752958690209093018690558351928352938201859052428284015291517f125e7824b1993afbe1ba9e31af86b2d1203d6aab5c9b69905af6e6b4e8132081929181900390910190a2979833975095505050505050565b600082820183811015610963576040805162461bcd60e51b815260206004820152601b60248201527f536166654d6174683a206164646974696f6e206f766572666c6f770000000000604482015290519081900360640190fd5b939250505056fe4c6f79616c7479436f72653a2063616e6e6f7420726563656976652065746865724c6f79616c7479436f72653a20636f6e7472616374206d75737420626520696e697465644c6f79616c7479436f72653a20656e74697479206d757374206265206120636f6e74726163744c6f79616c7479436f72653a20696e636f6d70617469626c65204a52432d3120636f6e74726163744c6f79616c7479436f72653a206c6f79616c747920656e7469747920646f6573206e6f74206578697374a2646970667358221220434bd89e1fa4eb8753e8bf0a6f5951acb9aceaf3e34810ca5f24838300376dbe64736f6c634300060c0033",
  "linkReferences": {},
  "deployedLinkReferences": {}
}